{
  "_format": "hh-sol-artifact-1",
  "contractName": "ENSDelegate",
  "sourceName": "contracts/ENSDelegate.sol",
  "abi": [
    {
      "inputs": [
        {
          "internalType": "contract ENS",
          "name": "_ens",
          "type": "address"
        },
        {
          "internalType": "contract ENSToken",
          "name": "_token",
          "type": "address"
        }
      ],
      "stateMutability": "nonpayable",
      "type": "constructor"
    },
    {
      "inputs": [
        {
          "internalType": "bytes32[]",
          "name": "nodes",
          "type": "bytes32[]"
        }
      ],
      "name": "getDelegates",
      "outputs": [
        {
          "components": [
            {
              "internalType": "address",
              "name": "addr",
              "type": "address"
            },
            {
              "internalType": "uint256",
              "name": "votes",
              "type": "uint256"
            },
            {
              "internalType": "string",
              "name": "avatar",
              "type": "string"
            },
            {
              "internalType": "string",
              "name": "profile",
              "type": "string"
            },
            {
              "internalType": "string",
              "name": "twitter",
              "type": "string"
            },
            {
              "internalType": "string",
              "name": "discord",
              "type": "string"
            }
          ],
          "internalType": "struct ENSDelegate.Delegate[]",
          "name": "ret",
          "type": "tuple[]"
        }
      ],
      "stateMutability": "view",
      "type": "function"
    }
  ],
  "bytecode": "0x60806040523480156200001157600080fd5b50604051620010ac380380620010ac8339818101604052810190620000379190620000ee565b816000806101000a81548173ffffffffffffffffffffffffffffffffffffffff021916908373ffffffffffffffffffffffffffffffffffffffff16021790555080600160006101000a81548173ffffffffffffffffffffffffffffffffffffffff021916908373ffffffffffffffffffffffffffffffffffffffff1602179055505050620001ca565b600081519050620000d18162000196565b92915050565b600081519050620000e881620001b0565b92915050565b6000806040838503121562000108576200010762000191565b5b60006200011885828601620000d7565b92505060206200012b85828601620000c0565b9150509250929050565b6000620001428262000171565b9050919050565b6000620001568262000135565b9050919050565b60006200016a8262000135565b9050919050565b600073ffffffffffffffffffffffffffffffffffffffff82169050919050565b600080fd5b620001a18162000149565b8114620001ad57600080fd5b50565b620001bb816200015d565b8114620001c757600080fd5b50565b610ed280620001da6000396000f3fe608060405234801561001057600080fd5b506004361061002b5760003560e01c8063355cbabd14610030575b600080fd5b61004a6004803603810190610045919061073b565b610060565b6040516100579190610a41565b60405180910390f35b60608282905067ffffffffffffffff81111561007f5761007e610d55565b5b6040519080825280602002602001820160405280156100b857816020015b6100a5610590565b81526020019060019003908161009d5790505b50905060005b8383905081101561011c576100eb8484838181106100df576100de610d26565b5b90506020020135610123565b8282815181106100fe576100fd610d26565b5b6020026020010181905250808061011490610cae565b9150506100be565b5092915050565b61012b610590565b60008060009054906101000a900473ffffffffffffffffffffffffffffffffffffffff1673ffffffffffffffffffffffffffffffffffffffff16630178b8bf846040518263ffffffff1660e01b81526004016101879190610a63565b60206040518083038186803b15801561019f57600080fd5b505afa1580156101b3573d6000803e3d6000fd5b505050506040513d601f19601f820116820180604052508101906101d791906106e1565b905060008173ffffffffffffffffffffffffffffffffffffffff16633b3b57de856040518263ffffffff1660e01b81526004016102149190610a63565b60206040518083038186803b15801561022c57600080fd5b505afa158015610240573d6000803e3d6000fd5b505050506040513d601f19601f82011682018060405250810190610264919061070e565b90506040518060c001604052808273ffffffffffffffffffffffffffffffffffffffff168152602001600160009054906101000a900473ffffffffffffffffffffffffffffffffffffffff1673ffffffffffffffffffffffffffffffffffffffff16639ab24eb0846040518263ffffffff1660e01b81526004016102e89190610a26565b60206040518083038186803b15801561030057600080fd5b505afa158015610314573d6000803e3d6000fd5b505050506040513d601f19601f8201168201806040525081019061033891906107d1565b81526020018373ffffffffffffffffffffffffffffffffffffffff166359d1d43c876040518263ffffffff1660e01b81526004016103769190610b08565b60006040518083038186803b15801561038e57600080fd5b505afa1580156103a2573d6000803e3d6000fd5b505050506040513d6000823e3d601f19601f820116820180604052508101906103cb9190610788565b81526020018373ffffffffffffffffffffffffffffffffffffffff166359d1d43c876040518263ffffffff1660e01b81526004016104099190610ada565b60006040518083038186803b15801561042157600080fd5b505afa158015610435573d6000803e3d6000fd5b505050506040513d6000823e3d601f19601f8201168201806040525081019061045e9190610788565b81526020018373ffffffffffffffffffffffffffffffffffffffff166359d1d43c876040518263ffffffff1660e01b815260040161049c9190610a7e565b60006040518083038186803b1580156104b457600080fd5b505afa1580156104c8573d6000803e3d6000fd5b505050506040513d6000823e3d601f19601f820116820180604052508101906104f19190610788565b81526020018373ffffffffffffffffffffffffffffffffffffffff166359d1d43c876040518263ffffffff1660e01b815260040161052f9190610aac565b60006040518083038186803b15801561054757600080fd5b505afa15801561055b573d6000803e3d6000fd5b505050506040513d6000823e3d601f19601f820116820180604052508101906105849190610788565b81525092505050919050565b6040518060c00160405280600073ffffffffffffffffffffffffffffffffffffffff16815260200160008152602001606081526020016060815260200160608152602001606081525090565b60006105ef6105ea84610b5b565b610b36565b90508281526020810184848401111561060b5761060a610d93565b5b610616848285610c4a565b509392505050565b60008151905061062d81610e57565b92915050565b60008151905061064281610e6e565b92915050565b60008083601f84011261065e5761065d610d89565b5b8235905067ffffffffffffffff81111561067b5761067a610d84565b5b60208301915083602082028301111561069757610696610d8e565b5b9250929050565b600082601f8301126106b3576106b2610d89565b5b81516106c38482602086016105dc565b91505092915050565b6000815190506106db81610e85565b92915050565b6000602082840312156106f7576106f6610d9d565b5b60006107058482850161061e565b91505092915050565b60006020828403121561072457610723610d9d565b5b600061073284828501610633565b91505092915050565b6000806020838503121561075257610751610d9d565b5b600083013567ffffffffffffffff8111156107705761076f610d98565b5b61077c85828601610648565b92509250509250929050565b60006020828403121561079e5761079d610d9d565b5b600082015167ffffffffffffffff8111156107bc576107bb610d98565b5b6107c88482850161069e565b91505092915050565b6000602082840312156107e7576107e6610d9d565b5b60006107f5848285016106cc565b91505092915050565b600061080a8383610979565b905092915050565b61081b81610bf2565b82525050565b61082a81610bf2565b82525050565b600061083b82610b9c565b6108458185610bbf565b93508360208202850161085785610b8c565b8060005b85811015610893578484038952815161087485826107fe565b945061087f83610bb2565b925060208a0199505060018101905061085b565b50829750879550505050505092915050565b6108ae81610c16565b82525050565b60006108bf82610ba7565b6108c98185610bd0565b93506108d9818560208601610c4a565b6108e281610da2565b840191505092915050565b60006108fa600b83610be1565b915061090582610db3565b602082019050919050565b600061091d600b83610be1565b915061092882610ddc565b602082019050919050565b6000610940601083610be1565b915061094b82610e05565b602082019050919050565b6000610963600683610be1565b915061096e82610e2e565b602082019050919050565b600060c0830160008301516109916000860182610812565b5060208301516109a46020860182610a17565b50604083015184820360408601526109bc82826108b4565b915050606083015184820360608601526109d682826108b4565b915050608083015184820360808601526109f082826108b4565b91505060a083015184820360a0860152610a0a82826108b4565b9150508091505092915050565b610a2081610c40565b82525050565b6000602082019050610a3b6000830184610821565b92915050565b60006020820190508181036000830152610a5b8184610830565b905092915050565b6000602082019050610a7860008301846108a5565b92915050565b6000604082019050610a9360008301846108a5565b8181036020830152610aa4816108ed565b905092915050565b6000604082019050610ac160008301846108a5565b8181036020830152610ad281610910565b905092915050565b6000604082019050610aef60008301846108a5565b8181036020830152610b0081610933565b905092915050565b6000604082019050610b1d60008301846108a5565b8181036020830152610b2e81610956565b905092915050565b6000610b40610b51565b9050610b4c8282610c7d565b919050565b6000604051905090565b600067ffffffffffffffff821115610b7657610b75610d55565b5b610b7f82610da2565b9050602081019050919050565b6000819050602082019050919050565b600081519050919050565b600081519050919050565b6000602082019050919050565b600082825260208201905092915050565b600082825260208201905092915050565b600082825260208201905092915050565b6000610bfd82610c20565b9050919050565b6000610c0f82610c20565b9050919050565b6000819050919050565b600073ffffffffffffffffffffffffffffffffffffffff82169050919050565b6000819050919050565b60005b83811015610c68578082015181840152602081019050610c4d565b83811115610c77576000848401525b50505050565b610c8682610da2565b810181811067ffffffffffffffff82111715610ca557610ca4610d55565b5b80604052505050565b6000610cb982610c40565b91507fffffffffffffffffffffffffffffffffffffffffffffffffffffffffffffffff821415610cec57610ceb610cf7565b5b600182019050919050565b7f4e487b7100000000000000000000000000000000000000000000000000000000600052601160045260246000fd5b7f4e487b7100000000000000000000000000000000000000000000000000000000600052603260045260246000fd5b7f4e487b7100000000000000000000000000000000000000000000000000000000600052604160045260246000fd5b600080fd5b600080fd5b600080fd5b600080fd5b600080fd5b600080fd5b6000601f19601f8301169050919050565b7f636f6d2e74776974746572000000000000000000000000000000000000000000600082015250565b7f636f6d2e646973636f7264000000000000000000000000000000000000000000600082015250565b7f6574682e656e732e64656c656761746500000000000000000000000000000000600082015250565b7f6176617461720000000000000000000000000000000000000000000000000000600082015250565b610e6081610bf2565b8114610e6b57600080fd5b50565b610e7781610c04565b8114610e8257600080fd5b50565b610e8e81610c40565b8114610e9957600080fd5b5056fea2646970667358221220ba2a1d975ddd1b149475a5570e8681e1b87d3c7818513c374c93881f4914170164736f6c63430008070033",
  "linkReferences": {},
  "deployedLinkReferences": {}
}