{
  "_format": "hh-sol-artifact-1",
  "contractName": "ENSToken",
  "sourceName": "contracts/ENSToken.sol",
  "abi": [
    {
      "inputs": [
        {
          "internalType": "uint256",
          "name": "freeSupply",
          "type": "uint256"
        },
        {
          "internalType": "uint256",
          "name": "airdropSupply",
          "type": "uint256"
        },
        {
          "internalType": "bytes32",
          "name": "_merkleRoot",
          "type": "bytes32"
        }
      ],
      "stateMutability": "nonpayable",
      "type": "constructor"
    },
    {
      "anonymous": false,
      "inputs": [
        {
          "indexed": true,
          "internalType": "address",
          "name": "owner",
          "type": "address"
        },
        {
          "indexed": true,
          "internalType": "address",
          "name": "spender",
          "type": "address"
        },
        {
          "indexed": false,
          "internalType": "uint256",
          "name": "value",
          "type": "uint256"
        }
      ],
      "name": "Approval",
      "type": "event"
    },
    {
      "anonymous": false,
      "inputs": [
        {
          "indexed": true,
          "internalType": "address",
          "name": "delegator",
          "type": "address"
        },
        {
          "indexed": true,
          "internalType": "address",
          "name": "fromDelegate",
          "type": "address"
        },
        {
          "indexed": true,
          "internalType": "address",
          "name": "toDelegate",
          "type": "address"
        }
      ],
      "name": "DelegateChanged",
      "type": "event"
    },
    {
      "anonymous": false,
      "inputs": [
        {
          "indexed": true,
          "internalType": "address",
          "name": "delegate",
          "type": "address"
        },
        {
          "indexed": false,
          "internalType": "uint256",
          "name": "previousBalance",
          "type": "uint256"
        },
        {
          "indexed": false,
          "internalType": "uint256",
          "name": "newBalance",
          "type": "uint256"
        }
      ],
      "name": "DelegateVotesChanged",
      "type": "event"
    },
    {
      "anonymous": false,
      "inputs": [
        {
          "indexed": true,
          "internalType": "address",
          "name": "previousOwner",
          "type": "address"
        },
        {
          "indexed": true,
          "internalType": "address",
          "name": "newOwner",
          "type": "address"
        }
      ],
      "name": "OwnershipTransferred",
      "type": "event"
    },
    {
      "anonymous": false,
      "inputs": [
        {
          "indexed": true,
          "internalType": "address",
          "name": "from",
          "type": "address"
        },
        {
          "indexed": true,
          "internalType": "address",
          "name": "to",
          "type": "address"
        },
        {
          "indexed": false,
          "internalType": "uint256",
          "name": "value",
          "type": "uint256"
        }
      ],
      "name": "Transfer",
      "type": "event"
    },
    {
      "inputs": [],
      "name": "DOMAIN_SEPARATOR",
      "outputs": [
        {
          "internalType": "bytes32",
          "name": "",
          "type": "bytes32"
        }
      ],
      "stateMutability": "view",
      "type": "function"
    },
    {
      "inputs": [
        {
          "internalType": "address",
          "name": "owner",
          "type": "address"
        },
        {
          "internalType": "address",
          "name": "spender",
          "type": "address"
        }
      ],
      "name": "allowance",
      "outputs": [
        {
          "internalType": "uint256",
          "name": "",
          "type": "uint256"
        }
      ],
      "stateMutability": "view",
      "type": "function"
    },
    {
      "inputs": [
        {
          "internalType": "address",
          "name": "spender",
          "type": "address"
        },
        {
          "internalType": "uint256",
          "name": "amount",
          "type": "uint256"
        }
      ],
      "name": "approve",
      "outputs": [
        {
          "internalType": "bool",
          "name": "",
          "type": "bool"
        }
      ],
      "stateMutability": "nonpayable",
      "type": "function"
    },
    {
      "inputs": [
        {
          "internalType": "address",
          "name": "account",
          "type": "address"
        }
      ],
      "name": "balanceOf",
      "outputs": [
        {
          "internalType": "uint256",
          "name": "",
          "type": "uint256"
        }
      ],
      "stateMutability": "view",
      "type": "function"
    },
    {
      "inputs": [
        {
          "internalType": "address",
          "name": "account",
          "type": "address"
        },
        {
          "internalType": "uint32",
          "name": "pos",
          "type": "uint32"
        }
      ],
      "name": "checkpoints",
      "outputs": [
        {
          "components": [
            {
              "internalType": "uint32",
              "name": "fromBlock",
              "type": "uint32"
            },
            {
              "internalType": "uint224",
              "name": "votes",
              "type": "uint224"
            }
          ],
          "internalType": "struct ERC20Votes.Checkpoint",
          "name": "",
          "type": "tuple"
        }
      ],
      "stateMutability": "view",
      "type": "function"
    },
    {
      "inputs": [
        {
          "internalType": "uint256",
          "name": "amount",
          "type": "uint256"
        },
        {
          "internalType": "address",
          "name": "delegate",
          "type": "address"
        },
        {
          "internalType": "bytes32[]",
          "name": "merkleProof",
          "type": "bytes32[]"
        }
      ],
      "name": "claimTokens",
      "outputs": [],
      "stateMutability": "nonpayable",
      "type": "function"
    },
    {
      "inputs": [],
      "name": "decimals",
      "outputs": [
        {
          "internalType": "uint8",
          "name": "",
          "type": "uint8"
        }
      ],
      "stateMutability": "view",
      "type": "function"
    },
    {
      "inputs": [
        {
          "internalType": "address",
          "name": "spender",
          "type": "address"
        },
        {
          "internalType": "uint256",
          "name": "subtractedValue",
          "type": "uint256"
        }
      ],
      "name": "decreaseAllowance",
      "outputs": [
        {
          "internalType": "bool",
          "name": "",
          "type": "bool"
        }
      ],
      "stateMutability": "nonpayable",
      "type": "function"
    },
    {
      "inputs": [
        {
          "internalType": "address",
          "name": "delegatee",
          "type": "address"
        }
      ],
      "name": "delegate",
      "outputs": [],
      "stateMutability": "nonpayable",
      "type": "function"
    },
    {
      "inputs": [
        {
          "internalType": "address",
          "name": "delegatee",
          "type": "address"
        },
        {
          "internalType": "uint256",
          "name": "nonce",
          "type": "uint256"
        },
        {
          "internalType": "uint256",
          "name": "expiry",
          "type": "uint256"
        },
        {
          "internalType": "uint8",
          "name": "v",
          "type": "uint8"
        },
        {
          "internalType": "bytes32",
          "name": "r",
          "type": "bytes32"
        },
        {
          "internalType": "bytes32",
          "name": "s",
          "type": "bytes32"
        }
      ],
      "name": "delegateBySig",
      "outputs": [],
      "stateMutability": "nonpayable",
      "type": "function"
    },
    {
      "inputs": [
        {
          "internalType": "address",
          "name": "account",
          "type": "address"
        }
      ],
      "name": "delegates",
      "outputs": [
        {
          "internalType": "address",
          "name": "",
          "type": "address"
        }
      ],
      "stateMutability": "view",
      "type": "function"
    },
    {
      "inputs": [
        {
          "internalType": "uint256",
          "name": "blockNumber",
          "type": "uint256"
        }
      ],
      "name": "getPastTotalSupply",
      "outputs": [
        {
          "internalType": "uint256",
          "name": "",
          "type": "uint256"
        }
      ],
      "stateMutability": "view",
      "type": "function"
    },
    {
      "inputs": [
        {
          "internalType": "address",
          "name": "account",
          "type": "address"
        },
        {
          "internalType": "uint256",
          "name": "blockNumber",
          "type": "uint256"
        }
      ],
      "name": "getPastVotes",
      "outputs": [
        {
          "internalType": "uint256",
          "name": "",
          "type": "uint256"
        }
      ],
      "stateMutability": "view",
      "type": "function"
    },
    {
      "inputs": [
        {
          "internalType": "address",
          "name": "account",
          "type": "address"
        }
      ],
      "name": "getVotes",
      "outputs": [
        {
          "internalType": "uint256",
          "name": "",
          "type": "uint256"
        }
      ],
      "stateMutability": "view",
      "type": "function"
    },
    {
      "inputs": [
        {
          "internalType": "address",
          "name": "spender",
          "type": "address"
        },
        {
          "internalType": "uint256",
          "name": "addedValue",
          "type": "uint256"
        }
      ],
      "name": "increaseAllowance",
      "outputs": [
        {
          "internalType": "bool",
          "name": "",
          "type": "bool"
        }
      ],
      "stateMutability": "nonpayable",
      "type": "function"
    },
    {
      "inputs": [
        {
          "internalType": "uint256",
          "name": "index",
          "type": "uint256"
        }
      ],
      "name": "isClaimed",
      "outputs": [
        {
          "internalType": "bool",
          "name": "",
          "type": "bool"
        }
      ],
      "stateMutability": "view",
      "type": "function"
    },
    {
      "inputs": [],
      "name": "merkleRoot",
      "outputs": [
        {
          "internalType": "bytes32",
          "name": "",
          "type": "bytes32"
        }
      ],
      "stateMutability": "view",
      "type": "function"
    },
    {
      "inputs": [],
      "name": "minimumMintInterval",
      "outputs": [
        {
          "internalType": "uint256",
          "name": "",
          "type": "uint256"
        }
      ],
      "stateMutability": "view",
      "type": "function"
    },
    {
      "inputs": [
        {
          "internalType": "address",
          "name": "dest",
          "type": "address"
        },
        {
          "internalType": "uint256",
          "name": "amount",
          "type": "uint256"
        }
      ],
      "name": "mint",
      "outputs": [],
      "stateMutability": "nonpayable",
      "type": "function"
    },
    {
      "inputs": [],
      "name": "mintCap",
      "outputs": [
        {
          "internalType": "uint256",
          "name": "",
          "type": "uint256"
        }
      ],
      "stateMutability": "view",
      "type": "function"
    },
    {
      "inputs": [],
      "name": "name",
      "outputs": [
        {
          "internalType": "string",
          "name": "",
          "type": "string"
        }
      ],
      "stateMutability": "view",
      "type": "function"
    },
    {
      "inputs": [],
      "name": "nextMint",
      "outputs": [
        {
          "internalType": "uint256",
          "name": "",
          "type": "uint256"
        }
      ],
      "stateMutability": "view",
      "type": "function"
    },
    {
      "inputs": [
        {
          "internalType": "address",
          "name": "owner",
          "type": "address"
        }
      ],
      "name": "nonces",
      "outputs": [
        {
          "internalType": "uint256",
          "name": "",
          "type": "uint256"
        }
      ],
      "stateMutability": "view",
      "type": "function"
    },
    {
      "inputs": [
        {
          "internalType": "address",
          "name": "account",
          "type": "address"
        }
      ],
      "name": "numCheckpoints",
      "outputs": [
        {
          "internalType": "uint32",
          "name": "",
          "type": "uint32"
        }
      ],
      "stateMutability": "view",
      "type": "function"
    },
    {
      "inputs": [],
      "name": "owner",
      "outputs": [
        {
          "internalType": "address",
          "name": "",
          "type": "address"
        }
      ],
      "stateMutability": "view",
      "type": "function"
    },
    {
      "inputs": [
        {
          "internalType": "address",
          "name": "owner",
          "type": "address"
        },
        {
          "internalType": "address",
          "name": "spender",
          "type": "address"
        },
        {
          "internalType": "uint256",
          "name": "value",
          "type": "uint256"
        },
        {
          "internalType": "uint256",
          "name": "deadline",
          "type": "uint256"
        },
        {
          "internalType": "uint8",
          "name": "v",
          "type": "uint8"
        },
        {
          "internalType": "bytes32",
          "name": "r",
          "type": "bytes32"
        },
        {
          "internalType": "bytes32",
          "name": "s",
          "type": "bytes32"
        }
      ],
      "name": "permit",
      "outputs": [],
      "stateMutability": "nonpayable",
      "type": "function"
    },
    {
      "inputs": [],
      "name": "renounceOwnership",
      "outputs": [],
      "stateMutability": "nonpayable",
      "type": "function"
    },
    {
      "inputs": [],
      "name": "symbol",
      "outputs": [
        {
          "internalType": "string",
          "name": "",
          "type": "string"
        }
      ],
      "stateMutability": "view",
      "type": "function"
    },
    {
      "inputs": [],
      "name": "totalSupply",
      "outputs": [
        {
          "internalType": "uint256",
          "name": "",
          "type": "uint256"
        }
      ],
      "stateMutability": "view",
      "type": "function"
    },
    {
      "inputs": [
        {
          "internalType": "address",
          "name": "recipient",
          "type": "address"
        },
        {
          "internalType": "uint256",
          "name": "amount",
          "type": "uint256"
        }
      ],
      "name": "transfer",
      "outputs": [
        {
          "internalType": "bool",
          "name": "",
          "type": "bool"
        }
      ],
      "stateMutability": "nonpayable",
      "type": "function"
    },
    {
      "inputs": [
        {
          "internalType": "address",
          "name": "sender",
          "type": "address"
        },
        {
          "internalType": "address",
          "name": "recipient",
          "type": "address"
        },
        {
          "internalType": "uint256",
          "name": "amount",
          "type": "uint256"
        }
      ],
      "name": "transferFrom",
      "outputs": [
        {
          "internalType": "bool",
          "name": "",
          "type": "bool"
        }
      ],
      "stateMutability": "nonpayable",
      "type": "function"
    },
    {
      "inputs": [
        {
          "internalType": "address",
          "name": "newOwner",
          "type": "address"
        }
      ],
      "name": "transferOwnership",
      "outputs": [],
      "stateMutability": "nonpayable",
      "type": "function"
    }
  ],
  "bytecode": "0x6101606040527f6e71edae12b1b97f4d1f60370fef10105fa2faae0126114a169c64845d6126c9610120908152503480156200003a57600080fd5b50604051620058f5380380620058f5833981810160405281019062000060919062000d69565b6040518060400160405280601581526020017f457468657265756d204e616d6520536572766963650000000000000000000000815250806040518060400160405280600181526020017f31000000000000000000000000000000000000000000000000000000000000008152506040518060400160405280601581526020017f457468657265756d204e616d65205365727669636500000000000000000000008152506040518060400160405280600381526020017f454e53000000000000000000000000000000000000000000000000000000000081525081600390805190602001906200015192919062000c8b565b5080600490805190602001906200016a92919062000c8b565b50505060008280519060200120905060008280519060200120905060007f8b73c3c69bb8fe3d512ecc4cf759cc79239f7b179b0ffacaa9a75d522b39400f90508260c081815250508160e081815250504660a08181525050620001d58184846200025960201b60201c565b608081815250508061010081815250505050505050506200020b620001ff6200029560201b60201c565b6200029d60201b60201c565b6200021d33846200036360201b60201c565b6200022f30836200036360201b60201c565b8061014081815250506301e13380426200024a919062000fd4565b600a81905550505050620012c6565b600083838346306040516020016200027695949392919062000e94565b6040516020818303038152906040528051906020012090509392505050565b600033905090565b6000600960009054906101000a900473ffffffffffffffffffffffffffffffffffffffff16905081600960006101000a81548173ffffffffffffffffffffffffffffffffffffffff021916908373ffffffffffffffffffffffffffffffffffffffff1602179055508173ffffffffffffffffffffffffffffffffffffffff168173ffffffffffffffffffffffffffffffffffffffff167f8be0079c531659141344cd1fd0a4f28419497f9722a3daafe3b4186f6b6457e060405160405180910390a35050565b6200037a82826200037e60201b620016961760201c565b5050565b6200039582826200043c60201b620017231760201c565b620003a5620005b560201b60201c565b7bffffffffffffffffffffffffffffffffffffffffffffffffffffffff16620003d3620005d960201b60201c565b111562000417576040517f08c379a00000000000000000000000000000000000000000000000000000000081526004016200040e9062000ef1565b60405180910390fd5b620004366008620005e360201b620018831783620005fb60201b60201c565b50505050565b600073ffffffffffffffffffffffffffffffffffffffff168273ffffffffffffffffffffffffffffffffffffffff161415620004af576040517f08c379a0000000000000000000000000000000000000000000000000000000008152600401620004a69062000f57565b60405180910390fd5b620004c360008383620008ac60201b60201c565b8060026000828254620004d7919062000fd4565b92505081905550806000808473ffffffffffffffffffffffffffffffffffffffff1673ffffffffffffffffffffffffffffffffffffffff16815260200190815260200160002060008282546200052e919062000fd4565b925050819055508173ffffffffffffffffffffffffffffffffffffffff16600073ffffffffffffffffffffffffffffffffffffffff167fddf252ad1be2c89b69c2b068fc378daa952ba7f163c4a11628f55a4df523b3ef8360405162000595919062000f79565b60405180910390a3620005b160008383620008b160201b60201c565b5050565b60007bffffffffffffffffffffffffffffffffffffffffffffffffffffffff905090565b6000600254905090565b60008183620005f3919062000fd4565b905092915050565b6000806000858054905090506000811462000670578560018262000620919062001031565b8154811062000634576200063362001148565b5b9060005260206000200160000160049054906101000a90047bffffffffffffffffffffffffffffffffffffffffffffffffffffffff1662000673565b60005b7bffffffffffffffffffffffffffffffffffffffffffffffffffffffff1692506200069f83858760201c565b9150600081118015620006f857504386600183620006be919062001031565b81548110620006d257620006d162001148565b5b9060005260206000200160000160009054906101000a900463ffffffff1663ffffffff16145b1562000799576200071482620008ce60201b620018991760201c565b8660018362000724919062001031565b8154811062000738576200073762001148565b5b9060005260206000200160000160046101000a8154817bffffffffffffffffffffffffffffffffffffffffffffffffffffffff02191690837bffffffffffffffffffffffffffffffffffffffffffffffffffffffff160217905550620008a3565b856040518060400160405280620007bb436200093c60201b620019041760201c565b63ffffffff168152602001620007dc85620008ce60201b620018991760201c565b7bffffffffffffffffffffffffffffffffffffffffffffffffffffffff168152509080600181540180825580915050600190039060005260206000200160009091909190915060008201518160000160006101000a81548163ffffffff021916908363ffffffff16021790555060208201518160000160046101000a8154817bffffffffffffffffffffffffffffffffffffffffffffffffffffffff02191690837bffffffffffffffffffffffffffffffffffffffffffffffffffffffff16021790555050505b50935093915050565b505050565b620008c98383836200099260201b620019571760201c565b505050565b60007bffffffffffffffffffffffffffffffffffffffffffffffffffffffff801682111562000934576040517f08c379a00000000000000000000000000000000000000000000000000000000081526004016200092b9062000f13565b60405180910390fd5b819050919050565b600063ffffffff80168211156200098a576040517f08c379a0000000000000000000000000000000000000000000000000000000008152600401620009819062000f35565b60405180910390fd5b819050919050565b620009aa838383620009e260201b620019821760201c565b620009dd620009bf84620009e760201b60201c565b620009d084620009e760201b60201c565b8362000a5060201b60201c565b505050565b505050565b6000600660008373ffffffffffffffffffffffffffffffffffffffff1673ffffffffffffffffffffffffffffffffffffffff16815260200190815260200160002060009054906101000a900473ffffffffffffffffffffffffffffffffffffffff169050919050565b8173ffffffffffffffffffffffffffffffffffffffff168373ffffffffffffffffffffffffffffffffffffffff161415801562000a8d5750600081115b1562000c6e57600073ffffffffffffffffffffffffffffffffffffffff168373ffffffffffffffffffffffffffffffffffffffff161462000b805760008062000b27600760008773ffffffffffffffffffffffffffffffffffffffff1673ffffffffffffffffffffffffffffffffffffffff16815260200190815260200160002062000c7360201b620019871785620005fb60201b60201c565b915091508473ffffffffffffffffffffffffffffffffffffffff167fdec2bacdd2f05b59de34da9b523dff8be42e5e38e818c82fdb0bae774387a724838360405162000b7592919062000f96565b60405180910390a250505b600073ffffffffffffffffffffffffffffffffffffffff168273ffffffffffffffffffffffffffffffffffffffff161462000c6d5760008062000c14600760008673ffffffffffffffffffffffffffffffffffffffff1673ffffffffffffffffffffffffffffffffffffffff168152602001908152602001600020620005e360201b620018831785620005fb60201b60201c565b915091508373ffffffffffffffffffffffffffffffffffffffff167fdec2bacdd2f05b59de34da9b523dff8be42e5e38e818c82fdb0bae774387a724838360405162000c6292919062000f96565b60405180910390a250505b5b505050565b6000818362000c83919062001031565b905092915050565b82805462000c9990620010b4565b90600052602060002090601f01602090048101928262000cbd576000855562000d09565b82601f1062000cd857805160ff191683800117855562000d09565b8280016001018555821562000d09579182015b8281111562000d0857825182559160200191906001019062000ceb565b5b50905062000d18919062000d1c565b5090565b5b8082111562000d3757600081600090555060010162000d1d565b5090565b60008151905062000d4c8162001292565b92915050565b60008151905062000d6381620012ac565b92915050565b60008060006060848603121562000d855762000d8462001177565b5b600062000d958682870162000d52565b935050602062000da88682870162000d52565b925050604062000dbb8682870162000d3b565b9150509250925092565b62000dd0816200106c565b82525050565b62000de18162001080565b82525050565b600062000df660308362000fc3565b915062000e03826200117c565b604082019050919050565b600062000e1d60278362000fc3565b915062000e2a82620011cb565b604082019050919050565b600062000e4460268362000fc3565b915062000e51826200121a565b604082019050919050565b600062000e6b601f8362000fc3565b915062000e788262001269565b602082019050919050565b62000e8e81620010aa565b82525050565b600060a08201905062000eab600083018862000dd6565b62000eba602083018762000dd6565b62000ec9604083018662000dd6565b62000ed8606083018562000e83565b62000ee7608083018462000dc5565b9695505050505050565b6000602082019050818103600083015262000f0c8162000de7565b9050919050565b6000602082019050818103600083015262000f2e8162000e0e565b9050919050565b6000602082019050818103600083015262000f508162000e35565b9050919050565b6000602082019050818103600083015262000f728162000e5c565b9050919050565b600060208201905062000f90600083018462000e83565b92915050565b600060408201905062000fad600083018562000e83565b62000fbc602083018462000e83565b9392505050565b600082825260208201905092915050565b600062000fe182620010aa565b915062000fee83620010aa565b9250827fffffffffffffffffffffffffffffffffffffffffffffffffffffffffffffffff03821115620010265762001025620010ea565b5b828201905092915050565b60006200103e82620010aa565b91506200104b83620010aa565b925082821015620010615762001060620010ea565b5b828203905092915050565b600062001079826200108a565b9050919050565b6000819050919050565b600073ffffffffffffffffffffffffffffffffffffffff82169050919050565b6000819050919050565b60006002820490506001821680620010cd57607f821691505b60208210811415620010e457620010e362001119565b5b50919050565b7f4e487b7100000000000000000000000000000000000000000000000000000000600052601160045260246000fd5b7f4e487b7100000000000000000000000000000000000000000000000000000000600052602260045260246000fd5b7f4e487b7100000000000000000000000000000000000000000000000000000000600052603260045260246000fd5b600080fd5b7f4552433230566f7465733a20746f74616c20737570706c79207269736b73206f60008201527f766572666c6f77696e6720766f74657300000000000000000000000000000000602082015250565b7f53616665436173743a2076616c756520646f65736e27742066697420696e203260008201527f3234206269747300000000000000000000000000000000000000000000000000602082015250565b7f53616665436173743a2076616c756520646f65736e27742066697420696e203360008201527f3220626974730000000000000000000000000000000000000000000000000000602082015250565b7f45524332303a206d696e7420746f20746865207a65726f206164647265737300600082015250565b6200129d8162001080565b8114620012a957600080fd5b50565b620012b781620010aa565b8114620012c357600080fd5b50565b60805160a05160c05160e0516101005161012051610140516145cd62001328600039600081816108570152610d390152600061130c01526000611e4801526000611e8a01526000611e6901526000611df501526000611e1d01526145cd6000f3fe608060405234801561001057600080fd5b50600436106101f05760003560e01c8063761229031161010f578063a457c2d7116100a2578063d505accf11610071578063d505accf1461060b578063dd62ed3e14610627578063f1127ed814610657578063f2fde38b14610687576101f0565b8063a457c2d714610571578063a9059cbb146105a1578063c3cda520146105d1578063cf665443146105ed576101f0565b80638e539e8c116100de5780638e539e8c146104c357806395d89b41146104f35780639ab24eb0146105115780639e34070f14610541576101f0565b8063761229031461043b57806376c71ca1146104575780637ecebe00146104755780638da5cb5b146104a5576101f0565b80633a46b1a8116101875780635c19a95c116101565780635c19a95c146103b55780636fcfff45146103d157806370a0823114610401578063715018a614610431576101f0565b80633a46b1a81461031b57806340c10f191461034b578063515b612a14610367578063587cde1e14610385576101f0565b80632eb4a7ab116101c35780632eb4a7ab14610291578063313ce567146102af5780633644e515146102cd57806339509351146102eb576101f0565b806306fdde03146101f5578063095ea7b31461021357806318160ddd1461024357806323b872dd14610261575b600080fd5b6101fd6106a3565b60405161020a91906136eb565b60405180910390f35b61022d60048036038101906102289190612e49565b610735565b60405161023a9190613577565b60405180910390f35b61024b610753565b6040516102589190613a68565b60405180910390f35b61027b60048036038101906102769190612d54565b61075d565b6040516102889190613577565b60405180910390f35b610299610855565b6040516102a69190613592565b60405180910390f35b6102b7610879565b6040516102c49190613ac7565b60405180910390f35b6102d5610882565b6040516102e29190613592565b60405180910390f35b61030560048036038101906103009190612e49565b610891565b6040516103129190613577565b60405180910390f35b61033560048036038101906103309190612e49565b61093d565b6040516103429190613a68565b60405180910390f35b61036560048036038101906103609190612e49565b6109d1565b005b61036f610b19565b60405161037c9190613a68565b60405180910390f35b61039f600480360381019061039a9190612ce7565b610b21565b6040516103ac919061355c565b60405180910390f35b6103cf60048036038101906103ca9190612ce7565b610b8a565b005b6103eb60048036038101906103e69190612ce7565b610b9e565b6040516103f89190613aac565b60405180910390f35b61041b60048036038101906104169190612ce7565b610bf2565b6040516104289190613a68565b60405180910390f35b610439610c3a565b005b61045560048036038101906104509190612f83565b610cc2565b005b61045f610e1d565b60405161046c9190613a68565b60405180910390f35b61048f600480360381019061048a9190612ce7565b610e22565b60405161049c9190613a68565b60405180910390f35b6104ad610e72565b6040516104ba919061355c565b60405180910390f35b6104dd60048036038101906104d89190612f56565b610e9c565b6040516104ea9190613a68565b60405180910390f35b6104fb610ef2565b60405161050891906136eb565b60405180910390f35b61052b60048036038101906105269190612ce7565b610f84565b6040516105389190613a68565b60405180910390f35b61055b60048036038101906105569190612f56565b611095565b6040516105689190613577565b60405180910390f35b61058b60048036038101906105869190612e49565b6110b2565b6040516105989190613577565b60405180910390f35b6105bb60048036038101906105b69190612e49565b61119d565b6040516105c89190613577565b60405180910390f35b6105eb60048036038101906105e69190612e89565b6111bb565b005b6105f56112bf565b6040516106029190613a68565b60405180910390f35b61062560048036038101906106209190612da7565b6112c5565b005b610641600480360381019061063c9190612d14565b611407565b60405161064e9190613a68565b60405180910390f35b610671600480360381019061066c9190612f16565b61148e565b60405161067e9190613a4d565b60405180910390f35b6106a1600480360381019061069c9190612ce7565b61159e565b005b6060600380546106b290613ce8565b80601f01602080910402602001604051908101604052809291908181526020018280546106de90613ce8565b801561072b5780601f106107005761010080835404028352916020019161072b565b820191906000526020600020905b81548152906001019060200180831161070e57829003601f168201915b5050505050905090565b600061074961074261199d565b84846119a5565b6001905092915050565b6000600254905090565b600061076a848484611b70565b6000600160008673ffffffffffffffffffffffffffffffffffffffff1673ffffffffffffffffffffffffffffffffffffffff16815260200190815260200160002060006107b561199d565b73ffffffffffffffffffffffffffffffffffffffff1673ffffffffffffffffffffffffffffffffffffffff16815260200190815260200160002054905082811015610835576040517f08c379a000000000000000000000000000000000000000000000000000000000815260040161082c906138ed565b60405180910390fd5b6108498561084161199d565b8584036119a5565b60019150509392505050565b7f000000000000000000000000000000000000000000000000000000000000000081565b60006012905090565b600061088c611df1565b905090565b600061093361089e61199d565b8484600160006108ac61199d565b73ffffffffffffffffffffffffffffffffffffffff1673ffffffffffffffffffffffffffffffffffffffff16815260200190815260200160002060008873ffffffffffffffffffffffffffffffffffffffff1673ffffffffffffffffffffffffffffffffffffffff1681526020019081526020016000205461092e9190613b09565b6119a5565b6001905092915050565b6000438210610981576040517f08c379a00000000000000000000000000000000000000000000000000000000081526004016109789061374d565b60405180910390fd5b6109c9600760008573ffffffffffffffffffffffffffffffffffffffff1673ffffffffffffffffffffffffffffffffffffffff16815260200190815260200160002083611eb4565b905092915050565b6109d961199d565b73ffffffffffffffffffffffffffffffffffffffff166109f7610e72565b73ffffffffffffffffffffffffffffffffffffffff1614610a4d576040517f08c379a0000000000000000000000000000000000000000000000000000000008152600401610a449061392d565b60405180910390fd5b61271060c8610a5a610753565b610a649190613b90565b610a6e9190613b5f565b811115610ab0576040517f08c379a0000000000000000000000000000000000000000000000000000000008152600401610aa7906138cd565b60405180910390fd5b600a54421015610af5576040517f08c379a0000000000000000000000000000000000000000000000000000000008152600401610aec9061396d565b60405180910390fd5b6301e1338042610b059190613b09565b600a81905550610b158282611fc0565b5050565b6301e1338081565b6000600660008373ffffffffffffffffffffffffffffffffffffffff1673ffffffffffffffffffffffffffffffffffffffff16815260200190815260200160002060009054906101000a900473ffffffffffffffffffffffffffffffffffffffff169050919050565b610b9b610b9561199d565b82611fce565b50565b6000610beb600760008473ffffffffffffffffffffffffffffffffffffffff1673ffffffffffffffffffffffffffffffffffffffff16815260200190815260200160002080549050611904565b9050919050565b60008060008373ffffffffffffffffffffffffffffffffffffffff1673ffffffffffffffffffffffffffffffffffffffff168152602001908152602001600020549050919050565b610c4261199d565b73ffffffffffffffffffffffffffffffffffffffff16610c60610e72565b73ffffffffffffffffffffffffffffffffffffffff1614610cb6576040517f08c379a0000000000000000000000000000000000000000000000000000000008152600401610cad9061392d565b60405180910390fd5b610cc060006120e8565b565b60003385604051602001610cd79291906134cd565b604051602081830303815290604052805190602001209050600080610d5e858580806020026020016040519081016040528093929190818152602001838360200280828437600081840152601f19601f820116905080830192505050505050507f0000000000000000000000000000000000000000000000000000000000000000856121ae565b9150915081610da2576040517f08c379a0000000000000000000000000000000000000000000000000000000008152600401610d999061386d565b60405180910390fd5b610dab81611095565b15610deb576040517f08c379a0000000000000000000000000000000000000000000000000000000008152600401610de2906139ad565b60405180910390fd5b610dff81600b61228a90919063ffffffff16565b610e093387611fce565b610e14303389611b70565b50505050505050565b60c881565b6000610e6b600560008473ffffffffffffffffffffffffffffffffffffffff1673ffffffffffffffffffffffffffffffffffffffff1681526020019081526020016000206122c8565b9050919050565b6000600960009054906101000a900473ffffffffffffffffffffffffffffffffffffffff16905090565b6000438210610ee0576040517f08c379a0000000000000000000000000000000000000000000000000000000008152600401610ed79061374d565b60405180910390fd5b610eeb600883611eb4565b9050919050565b606060048054610f0190613ce8565b80601f0160208091040260200160405190810160405280929190818152602001828054610f2d90613ce8565b8015610f7a5780601f10610f4f57610100808354040283529160200191610f7a565b820191906000526020600020905b815481529060010190602001808311610f5d57829003601f168201915b5050505050905090565b600080600760008473ffffffffffffffffffffffffffffffffffffffff1673ffffffffffffffffffffffffffffffffffffffff1681526020019081526020016000208054905090506000811461106c57600760008473ffffffffffffffffffffffffffffffffffffffff1673ffffffffffffffffffffffffffffffffffffffff1681526020019081526020016000206001826110209190613bea565b8154811061103157611030613e57565b5b9060005260206000200160000160049054906101000a90047bffffffffffffffffffffffffffffffffffffffffffffffffffffffff1661106f565b60005b7bffffffffffffffffffffffffffffffffffffffffffffffffffffffff16915050919050565b60006110ab82600b6122d690919063ffffffff16565b9050919050565b600080600160006110c161199d565b73ffffffffffffffffffffffffffffffffffffffff1673ffffffffffffffffffffffffffffffffffffffff16815260200190815260200160002060008573ffffffffffffffffffffffffffffffffffffffff1673ffffffffffffffffffffffffffffffffffffffff1681526020019081526020016000205490508281101561117e576040517f08c379a000000000000000000000000000000000000000000000000000000000815260040161117590613a0d565b60405180910390fd5b61119261118961199d565b858584036119a5565b600191505092915050565b60006111b16111aa61199d565b8484611b70565b6001905092915050565b834211156111fe576040517f08c379a00000000000000000000000000000000000000000000000000000000081526004016111f59061376d565b60405180910390fd5b60006112606112587fe48329057bfd03d55e49b547132e39cffd9c1820ad7b9d4c5307691425d15adf89898960405160200161123d949392919061360e565b60405160208183030381529060405280519060200120612312565b85858561232c565b905061126b81612357565b86146112ac576040517f08c379a00000000000000000000000000000000000000000000000000000000081526004016112a3906137ad565b60405180910390fd5b6112b68188611fce565b50505050505050565b600a5481565b83421115611308576040517f08c379a00000000000000000000000000000000000000000000000000000000081526004016112ff9061380d565b60405180910390fd5b60007f00000000000000000000000000000000000000000000000000000000000000008888886113378c612357565b8960405160200161134d969594939291906135ad565b604051602081830303815290604052805190602001209050600061137082612312565b905060006113808287878761232c565b90508973ffffffffffffffffffffffffffffffffffffffff168173ffffffffffffffffffffffffffffffffffffffff16146113f0576040517f08c379a00000000000000000000000000000000000000000000000000000000081526004016113e7906138ad565b60405180910390fd5b6113fb8a8a8a6119a5565b50505050505050505050565b6000600160008473ffffffffffffffffffffffffffffffffffffffff1673ffffffffffffffffffffffffffffffffffffffff16815260200190815260200160002060008373ffffffffffffffffffffffffffffffffffffffff1673ffffffffffffffffffffffffffffffffffffffff16815260200190815260200160002054905092915050565b611496612bea565b600760008473ffffffffffffffffffffffffffffffffffffffff1673ffffffffffffffffffffffffffffffffffffffff1681526020019081526020016000208263ffffffff16815481106114ed576114ec613e57565b5b906000526020600020016040518060400160405290816000820160009054906101000a900463ffffffff1663ffffffff1663ffffffff1681526020016000820160049054906101000a90047bffffffffffffffffffffffffffffffffffffffffffffffffffffffff167bffffffffffffffffffffffffffffffffffffffffffffffffffffffff167bffffffffffffffffffffffffffffffffffffffffffffffffffffffff1681525050905092915050565b6115a661199d565b73ffffffffffffffffffffffffffffffffffffffff166115c4610e72565b73ffffffffffffffffffffffffffffffffffffffff161461161a576040517f08c379a00000000000000000000000000000000000000000000000000000000081526004016116119061392d565b60405180910390fd5b600073ffffffffffffffffffffffffffffffffffffffff168173ffffffffffffffffffffffffffffffffffffffff16141561168a576040517f08c379a0000000000000000000000000000000000000000000000000000000008152600401611681906137cd565b60405180910390fd5b611693816120e8565b50565b6116a08282611723565b6116a86123b5565b7bffffffffffffffffffffffffffffffffffffffffffffffffffffffff166116ce610753565b111561170f576040517f08c379a00000000000000000000000000000000000000000000000000000000081526004016117069061390d565b60405180910390fd5b61171d6008611883836123d9565b50505050565b600073ffffffffffffffffffffffffffffffffffffffff168273ffffffffffffffffffffffffffffffffffffffff161415611793576040517f08c379a000000000000000000000000000000000000000000000000000000000815260040161178a90613a2d565b60405180910390fd5b61179f60008383612651565b80600260008282546117b19190613b09565b92505081905550806000808473ffffffffffffffffffffffffffffffffffffffff1673ffffffffffffffffffffffffffffffffffffffff16815260200190815260200160002060008282546118069190613b09565b925050819055508173ffffffffffffffffffffffffffffffffffffffff16600073ffffffffffffffffffffffffffffffffffffffff167fddf252ad1be2c89b69c2b068fc378daa952ba7f163c4a11628f55a4df523b3ef8360405161186b9190613a68565b60405180910390a361187f60008383612656565b5050565b600081836118919190613b09565b905092915050565b60007bffffffffffffffffffffffffffffffffffffffffffffffffffffffff80168211156118fc576040517f08c379a00000000000000000000000000000000000000000000000000000000081526004016118f39061394d565b60405180910390fd5b819050919050565b600063ffffffff801682111561194f576040517f08c379a0000000000000000000000000000000000000000000000000000000008152600401611946906139cd565b60405180910390fd5b819050919050565b611962838383611982565b61197d61196e84610b21565b61197784610b21565b83612666565b505050565b505050565b600081836119959190613bea565b905092915050565b600033905090565b600073ffffffffffffffffffffffffffffffffffffffff168373ffffffffffffffffffffffffffffffffffffffff161415611a15576040517f08c379a0000000000000000000000000000000000000000000000000000000008152600401611a0c906139ed565b60405180910390fd5b600073ffffffffffffffffffffffffffffffffffffffff168273ffffffffffffffffffffffffffffffffffffffff161415611a85576040517f08c379a0000000000000000000000000000000000000000000000000000000008152600401611a7c906137ed565b60405180910390fd5b80600160008573ffffffffffffffffffffffffffffffffffffffff1673ffffffffffffffffffffffffffffffffffffffff16815260200190815260200160002060008473ffffffffffffffffffffffffffffffffffffffff1673ffffffffffffffffffffffffffffffffffffffff168152602001908152602001600020819055508173ffffffffffffffffffffffffffffffffffffffff168373ffffffffffffffffffffffffffffffffffffffff167f8c5be1e5ebec7d5bd14f71427d1e84f3dd0314c0f7b2291e5b200ac8c7c3b92583604051611b639190613a68565b60405180910390a3505050565b600073ffffffffffffffffffffffffffffffffffffffff168373ffffffffffffffffffffffffffffffffffffffff161415611be0576040517f08c379a0000000000000000000000000000000000000000000000000000000008152600401611bd79061398d565b60405180910390fd5b600073ffffffffffffffffffffffffffffffffffffffff168273ffffffffffffffffffffffffffffffffffffffff161415611c50576040517f08c379a0000000000000000000000000000000000000000000000000000000008152600401611c479061372d565b60405180910390fd5b611c5b838383612651565b60008060008573ffffffffffffffffffffffffffffffffffffffff1673ffffffffffffffffffffffffffffffffffffffff16815260200190815260200160002054905081811015611ce1576040517f08c379a0000000000000000000000000000000000000000000000000000000008152600401611cd89061382d565b60405180910390fd5b8181036000808673ffffffffffffffffffffffffffffffffffffffff1673ffffffffffffffffffffffffffffffffffffffff16815260200190815260200160002081905550816000808573ffffffffffffffffffffffffffffffffffffffff1673ffffffffffffffffffffffffffffffffffffffff1681526020019081526020016000206000828254611d749190613b09565b925050819055508273ffffffffffffffffffffffffffffffffffffffff168473ffffffffffffffffffffffffffffffffffffffff167fddf252ad1be2c89b69c2b068fc378daa952ba7f163c4a11628f55a4df523b3ef84604051611dd89190613a68565b60405180910390a3611deb848484612656565b50505050565b60007f0000000000000000000000000000000000000000000000000000000000000000461415611e43577f00000000000000000000000000000000000000000000000000000000000000009050611eb1565b611eae7f00000000000000000000000000000000000000000000000000000000000000007f00000000000000000000000000000000000000000000000000000000000000007f000000000000000000000000000000000000000000000000000000000000000061285f565b90505b90565b6000808380549050905060005b81811015611f33576000611ed58284612899565b905084868281548110611eeb57611eea613e57565b5b9060005260206000200160000160009054906101000a900463ffffffff1663ffffffff161115611f1d57809250611f2d565b600181611f2a9190613b09565b91505b50611ec1565b60008214611f955784600183611f499190613bea565b81548110611f5a57611f59613e57565b5b9060005260206000200160000160049054906101000a90047bffffffffffffffffffffffffffffffffffffffffffffffffffffffff16611f98565b60005b7bffffffffffffffffffffffffffffffffffffffffffffffffffffffff169250505092915050565b611fca8282611696565b5050565b6000611fd983610b21565b90506000611fe684610bf2565b905082600660008673ffffffffffffffffffffffffffffffffffffffff1673ffffffffffffffffffffffffffffffffffffffff16815260200190815260200160002060006101000a81548173ffffffffffffffffffffffffffffffffffffffff021916908373ffffffffffffffffffffffffffffffffffffffff1602179055508273ffffffffffffffffffffffffffffffffffffffff168273ffffffffffffffffffffffffffffffffffffffff168573ffffffffffffffffffffffffffffffffffffffff167f3134e8a2e6d97e929a7e54011ea5485d7d196dd5f0ba4d4ef95803e8e3fc257f60405160405180910390a46120e2828483612666565b50505050565b6000600960009054906101000a900473ffffffffffffffffffffffffffffffffffffffff16905081600960006101000a81548173ffffffffffffffffffffffffffffffffffffffff021916908373ffffffffffffffffffffffffffffffffffffffff1602179055508173ffffffffffffffffffffffffffffffffffffffff168173ffffffffffffffffffffffffffffffffffffffff167f8be0079c531659141344cd1fd0a4f28419497f9722a3daafe3b4186f6b6457e060405160405180910390a35050565b60008060008390506000805b8751811015612277576002826121d09190613b90565b915060008882815181106121e7576121e6613e57565b5b6020026020010151905080841161222857838160405160200161220b9291906134f9565b604051602081830303815290604052805190602001209350612263565b808460405160200161223b9291906134f9565b6040516020818303038152906040528051906020012093506001836122609190613b09565b92505b50808061226f90613d1a565b9150506121ba565b5085821481935093505050935093915050565b6000600882901c9050600060ff83166001901b9050808460000160008481526020019081526020016000206000828254179250508190555050505050565b600081600001549050919050565b600080600883901c9050600060ff84166001901b9050600081866000016000858152602001908152602001600020541614159250505092915050565b600061232561231f611df1565b836128bf565b9050919050565b600080600061233d878787876128f2565b9150915061234a816129ff565b8192505050949350505050565b600080600560008473ffffffffffffffffffffffffffffffffffffffff1673ffffffffffffffffffffffffffffffffffffffff16815260200190815260200160002090506123a4816122c8565b91506123af81612bd4565b50919050565b60007bffffffffffffffffffffffffffffffffffffffffffffffffffffffff905090565b6000806000858054905090506000811461244757856001826123fb9190613bea565b8154811061240c5761240b613e57565b5b9060005260206000200160000160049054906101000a90047bffffffffffffffffffffffffffffffffffffffffffffffffffffffff1661244a565b60005b7bffffffffffffffffffffffffffffffffffffffffffffffffffffffff16925061247883858763ffffffff16565b91506000811180156124cb575043866001836124949190613bea565b815481106124a5576124a4613e57565b5b9060005260206000200160000160009054906101000a900463ffffffff1663ffffffff16145b15612558576124d982611899565b866001836124e79190613bea565b815481106124f8576124f7613e57565b5b9060005260206000200160000160046101000a8154817bffffffffffffffffffffffffffffffffffffffffffffffffffffffff02191690837bffffffffffffffffffffffffffffffffffffffffffffffffffffffff160217905550612648565b85604051806040016040528061256d43611904565b63ffffffff16815260200161258185611899565b7bffffffffffffffffffffffffffffffffffffffffffffffffffffffff168152509080600181540180825580915050600190039060005260206000200160009091909190915060008201518160000160006101000a81548163ffffffff021916908363ffffffff16021790555060208201518160000160046101000a8154817bffffffffffffffffffffffffffffffffffffffffffffffffffffffff02191690837bffffffffffffffffffffffffffffffffffffffffffffffffffffffff16021790555050505b50935093915050565b505050565b612661838383611957565b505050565b8173ffffffffffffffffffffffffffffffffffffffff168373ffffffffffffffffffffffffffffffffffffffff16141580156126a25750600081115b1561285a57600073ffffffffffffffffffffffffffffffffffffffff168373ffffffffffffffffffffffffffffffffffffffff161461278057600080612729600760008773ffffffffffffffffffffffffffffffffffffffff1673ffffffffffffffffffffffffffffffffffffffff168152602001908152602001600020611987856123d9565b915091508473ffffffffffffffffffffffffffffffffffffffff167fdec2bacdd2f05b59de34da9b523dff8be42e5e38e818c82fdb0bae774387a7248383604051612775929190613a83565b60405180910390a250505b600073ffffffffffffffffffffffffffffffffffffffff168273ffffffffffffffffffffffffffffffffffffffff161461285957600080612802600760008673ffffffffffffffffffffffffffffffffffffffff1673ffffffffffffffffffffffffffffffffffffffff168152602001908152602001600020611883856123d9565b915091508373ffffffffffffffffffffffffffffffffffffffff167fdec2bacdd2f05b59de34da9b523dff8be42e5e38e818c82fdb0bae774387a724838360405161284e929190613a83565b60405180910390a250505b5b505050565b6000838383463060405160200161287a959493929190613653565b6040516020818303038152906040528051906020012090509392505050565b600060028284186128aa9190613b5f565b8284166128b79190613b09565b905092915050565b600082826040516020016128d4929190613525565b60405160208183030381529060405280519060200120905092915050565b6000807f7fffffffffffffffffffffffffffffff5d576e7357a4501ddfe92f46681b20a08360001c111561292d5760006003915091506129f6565b601b8560ff16141580156129455750601c8560ff1614155b156129575760006004915091506129f6565b60006001878787876040516000815260200160405260405161297c94939291906136a6565b6020604051602081039080840390855afa15801561299e573d6000803e3d6000fd5b505050602060405103519050600073ffffffffffffffffffffffffffffffffffffffff168173ffffffffffffffffffffffffffffffffffffffff1614156129ed576000600192509250506129f6565b80600092509250505b94509492505050565b60006004811115612a1357612a12613df9565b5b816004811115612a2657612a25613df9565b5b1415612a3157612bd1565b60016004811115612a4557612a44613df9565b5b816004811115612a5857612a57613df9565b5b1415612a99576040517f08c379a0000000000000000000000000000000000000000000000000000000008152600401612a909061370d565b60405180910390fd5b60026004811115612aad57612aac613df9565b5b816004811115612ac057612abf613df9565b5b1415612b01576040517f08c379a0000000000000000000000000000000000000000000000000000000008152600401612af89061378d565b60405180910390fd5b60036004811115612b1557612b14613df9565b5b816004811115612b2857612b27613df9565b5b1415612b69576040517f08c379a0000000000000000000000000000000000000000000000000000000008152600401612b609061384d565b60405180910390fd5b600480811115612b7c57612b7b613df9565b5b816004811115612b8f57612b8e613df9565b5b1415612bd0576040517f08c379a0000000000000000000000000000000000000000000000000000000008152600401612bc79061388d565b60405180910390fd5b5b50565b6001816000016000828254019250508190555050565b6040518060400160405280600063ffffffff16815260200160007bffffffffffffffffffffffffffffffffffffffffffffffffffffffff1681525090565b600081359050612c3781614524565b92915050565b60008083601f840112612c5357612c52613e8b565b5b8235905067ffffffffffffffff811115612c7057612c6f613e86565b5b602083019150836020820283011115612c8c57612c8b613e90565b5b9250929050565b600081359050612ca28161453b565b92915050565b600081359050612cb781614552565b92915050565b600081359050612ccc81614569565b92915050565b600081359050612ce181614580565b92915050565b600060208284031215612cfd57612cfc613e9a565b5b6000612d0b84828501612c28565b91505092915050565b60008060408385031215612d2b57612d2a613e9a565b5b6000612d3985828601612c28565b9250506020612d4a85828601612c28565b9150509250929050565b600080600060608486031215612d6d57612d6c613e9a565b5b6000612d7b86828701612c28565b9350506020612d8c86828701612c28565b9250506040612d9d86828701612ca8565b9150509250925092565b600080600080600080600060e0888a031215612dc657612dc5613e9a565b5b6000612dd48a828b01612c28565b9750506020612de58a828b01612c28565b9650506040612df68a828b01612ca8565b9550506060612e078a828b01612ca8565b9450506080612e188a828b01612cd2565b93505060a0612e298a828b01612c93565b92505060c0612e3a8a828b01612c93565b91505092959891949750929550565b60008060408385031215612e6057612e5f613e9a565b5b6000612e6e85828601612c28565b9250506020612e7f85828601612ca8565b9150509250929050565b60008060008060008060c08789031215612ea657612ea5613e9a565b5b6000612eb489828a01612c28565b9650506020612ec589828a01612ca8565b9550506040612ed689828a01612ca8565b9450506060612ee789828a01612cd2565b9350506080612ef889828a01612c93565b92505060a0612f0989828a01612c93565b9150509295509295509295565b60008060408385031215612f2d57612f2c613e9a565b5b6000612f3b85828601612c28565b9250506020612f4c85828601612cbd565b9150509250929050565b600060208284031215612f6c57612f6b613e9a565b5b6000612f7a84828501612ca8565b91505092915050565b60008060008060608587031215612f9d57612f9c613e9a565b5b6000612fab87828801612ca8565b9450506020612fbc87828801612c28565b935050604085013567ffffffffffffffff811115612fdd57612fdc613e95565b5b612fe987828801612c3d565b925092505092959194509250565b61300081613c1e565b82525050565b61301761301282613c1e565b613d63565b82525050565b61302681613c30565b82525050565b61303581613c3c565b82525050565b61304c61304782613c3c565b613d75565b82525050565b600061305d82613ae2565b6130678185613aed565b9350613077818560208601613cb5565b61308081613e9f565b840191505092915050565b6000613098601883613aed565b91506130a382613ebd565b602082019050919050565b60006130bb602383613aed565b91506130c682613ee6565b604082019050919050565b60006130de601f83613aed565b91506130e982613f35565b602082019050919050565b6000613101601d83613aed565b915061310c82613f5e565b602082019050919050565b6000613124601f83613aed565b915061312f82613f87565b602082019050919050565b6000613147601983613aed565b915061315282613fb0565b602082019050919050565b600061316a602683613aed565b915061317582613fd9565b604082019050919050565b600061318d602283613aed565b915061319882614028565b604082019050919050565b60006131b0600283613afe565b91506131bb82614077565b600282019050919050565b60006131d3601d83613aed565b91506131de826140a0565b602082019050919050565b60006131f6602683613aed565b9150613201826140c9565b604082019050919050565b6000613219602283613aed565b915061322482614118565b604082019050919050565b600061323c601a83613aed565b915061324782614167565b602082019050919050565b600061325f602283613aed565b915061326a82614190565b604082019050919050565b6000613282601e83613aed565b915061328d826141df565b602082019050919050565b60006132a5602583613aed565b91506132b082614208565b604082019050919050565b60006132c8602883613aed565b91506132d382614257565b604082019050919050565b60006132eb603083613aed565b91506132f6826142a6565b604082019050919050565b600061330e602083613aed565b9150613319826142f5565b602082019050919050565b6000613331602783613aed565b915061333c8261431e565b604082019050919050565b6000613354601983613aed565b915061335f8261436d565b602082019050919050565b6000613377602583613aed565b915061338282614396565b604082019050919050565b600061339a601c83613aed565b91506133a5826143e5565b602082019050919050565b60006133bd602683613aed565b91506133c88261440e565b604082019050919050565b60006133e0602483613aed565b91506133eb8261445d565b604082019050919050565b6000613403602583613aed565b915061340e826144ac565b604082019050919050565b6000613426601f83613aed565b9150613431826144fb565b602082019050919050565b60408201600082015161345260008501826134a0565b506020820151613465602085018261346b565b50505050565b61347481613c66565b82525050565b61348381613c8e565b82525050565b61349a61349582613c8e565b613d91565b82525050565b6134a981613c98565b82525050565b6134b881613c98565b82525050565b6134c781613ca8565b82525050565b60006134d98285613006565b6014820191506134e98284613489565b6020820191508190509392505050565b6000613505828561303b565b602082019150613515828461303b565b6020820191508190509392505050565b6000613530826131a3565b915061353c828561303b565b60208201915061354c828461303b565b6020820191508190509392505050565b60006020820190506135716000830184612ff7565b92915050565b600060208201905061358c600083018461301d565b92915050565b60006020820190506135a7600083018461302c565b92915050565b600060c0820190506135c2600083018961302c565b6135cf6020830188612ff7565b6135dc6040830187612ff7565b6135e9606083018661347a565b6135f6608083018561347a565b61360360a083018461347a565b979650505050505050565b6000608082019050613623600083018761302c565b6136306020830186612ff7565b61363d604083018561347a565b61364a606083018461347a565b95945050505050565b600060a082019050613668600083018861302c565b613675602083018761302c565b613682604083018661302c565b61368f606083018561347a565b61369c6080830184612ff7565b9695505050505050565b60006080820190506136bb600083018761302c565b6136c860208301866134be565b6136d5604083018561302c565b6136e2606083018461302c565b95945050505050565b600060208201905081810360008301526137058184613052565b905092915050565b600060208201905081810360008301526137268161308b565b9050919050565b60006020820190508181036000830152613746816130ae565b9050919050565b60006020820190508181036000830152613766816130d1565b9050919050565b60006020820190508181036000830152613786816130f4565b9050919050565b600060208201905081810360008301526137a681613117565b9050919050565b600060208201905081810360008301526137c68161313a565b9050919050565b600060208201905081810360008301526137e68161315d565b9050919050565b6000602082019050818103600083015261380681613180565b9050919050565b60006020820190508181036000830152613826816131c6565b9050919050565b60006020820190508181036000830152613846816131e9565b9050919050565b600060208201905081810360008301526138668161320c565b9050919050565b600060208201905081810360008301526138868161322f565b9050919050565b600060208201905081810360008301526138a681613252565b9050919050565b600060208201905081810360008301526138c681613275565b9050919050565b600060208201905081810360008301526138e681613298565b9050919050565b60006020820190508181036000830152613906816132bb565b9050919050565b60006020820190508181036000830152613926816132de565b9050919050565b6000602082019050818103600083015261394681613301565b9050919050565b6000602082019050818103600083015261396681613324565b9050919050565b6000602082019050818103600083015261398681613347565b9050919050565b600060208201905081810360008301526139a68161336a565b9050919050565b600060208201905081810360008301526139c68161338d565b9050919050565b600060208201905081810360008301526139e6816133b0565b9050919050565b60006020820190508181036000830152613a06816133d3565b9050919050565b60006020820190508181036000830152613a26816133f6565b9050919050565b60006020820190508181036000830152613a4681613419565b9050919050565b6000604082019050613a62600083018461343c565b92915050565b6000602082019050613a7d600083018461347a565b92915050565b6000604082019050613a98600083018561347a565b613aa5602083018461347a565b9392505050565b6000602082019050613ac160008301846134af565b92915050565b6000602082019050613adc60008301846134be565b92915050565b600081519050919050565b600082825260208201905092915050565b600081905092915050565b6000613b1482613c8e565b9150613b1f83613c8e565b9250827fffffffffffffffffffffffffffffffffffffffffffffffffffffffffffffffff03821115613b5457613b53613d9b565b5b828201905092915050565b6000613b6a82613c8e565b9150613b7583613c8e565b925082613b8557613b84613dca565b5b828204905092915050565b6000613b9b82613c8e565b9150613ba683613c8e565b9250817fffffffffffffffffffffffffffffffffffffffffffffffffffffffffffffffff0483118215151615613bdf57613bde613d9b565b5b828202905092915050565b6000613bf582613c8e565b9150613c0083613c8e565b925082821015613c1357613c12613d9b565b5b828203905092915050565b6000613c2982613c46565b9050919050565b60008115159050919050565b6000819050919050565b600073ffffffffffffffffffffffffffffffffffffffff82169050919050565b60007bffffffffffffffffffffffffffffffffffffffffffffffffffffffff82169050919050565b6000819050919050565b600063ffffffff82169050919050565b600060ff82169050919050565b60005b83811015613cd3578082015181840152602081019050613cb8565b83811115613ce2576000848401525b50505050565b60006002820490506001821680613d0057607f821691505b60208210811415613d1457613d13613e28565b5b50919050565b6000613d2582613c8e565b91507fffffffffffffffffffffffffffffffffffffffffffffffffffffffffffffffff821415613d5857613d57613d9b565b5b600182019050919050565b6000613d6e82613d7f565b9050919050565b6000819050919050565b6000613d8a82613eb0565b9050919050565b6000819050919050565b7f4e487b7100000000000000000000000000000000000000000000000000000000600052601160045260246000fd5b7f4e487b7100000000000000000000000000000000000000000000000000000000600052601260045260246000fd5b7f4e487b7100000000000000000000000000000000000000000000000000000000600052602160045260246000fd5b7f4e487b7100000000000000000000000000000000000000000000000000000000600052602260045260246000fd5b7f4e487b7100000000000000000000000000000000000000000000000000000000600052603260045260246000fd5b600080fd5b600080fd5b600080fd5b600080fd5b600080fd5b6000601f19601f8301169050919050565b60008160601b9050919050565b7f45434453413a20696e76616c6964207369676e61747572650000000000000000600082015250565b7f45524332303a207472616e7366657220746f20746865207a65726f206164647260008201527f6573730000000000000000000000000000000000000000000000000000000000602082015250565b7f4552433230566f7465733a20626c6f636b206e6f7420796574206d696e656400600082015250565b7f4552433230566f7465733a207369676e61747572652065787069726564000000600082015250565b7f45434453413a20696e76616c6964207369676e6174757265206c656e67746800600082015250565b7f4552433230566f7465733a20696e76616c6964206e6f6e636500000000000000600082015250565b7f4f776e61626c653a206e6577206f776e657220697320746865207a65726f206160008201527f6464726573730000000000000000000000000000000000000000000000000000602082015250565b7f45524332303a20617070726f766520746f20746865207a65726f20616464726560008201527f7373000000000000000000000000000000000000000000000000000000000000602082015250565b7f1901000000000000000000000000000000000000000000000000000000000000600082015250565b7f45524332305065726d69743a206578706972656420646561646c696e65000000600082015250565b7f45524332303a207472616e7366657220616d6f756e742065786365656473206260008201527f616c616e63650000000000000000000000000000000000000000000000000000602082015250565b7f45434453413a20696e76616c6964207369676e6174757265202773272076616c60008201527f7565000000000000000000000000000000000000000000000000000000000000602082015250565b7f454e533a2056616c69642070726f6f662072657175697265642e000000000000600082015250565b7f45434453413a20696e76616c6964207369676e6174757265202776272076616c60008201527f7565000000000000000000000000000000000000000000000000000000000000602082015250565b7f45524332305065726d69743a20696e76616c6964207369676e61747572650000600082015250565b7f454e53546f6b656e3a204d696e742065786365656473206d6178696d756d206160008201527f6d6f756e74000000000000000000000000000000000000000000000000000000602082015250565b7f45524332303a207472616e7366657220616d6f756e742065786365656473206160008201527f6c6c6f77616e6365000000000000000000000000000000000000000000000000602082015250565b7f4552433230566f7465733a20746f74616c20737570706c79207269736b73206f60008201527f766572666c6f77696e6720766f74657300000000000000000000000000000000602082015250565b7f4f776e61626c653a2063616c6c6572206973206e6f7420746865206f776e6572600082015250565b7f53616665436173743a2076616c756520646f65736e27742066697420696e203260008201527f3234206269747300000000000000000000000000000000000000000000000000602082015250565b7f454e53546f6b656e3a2043616e6e6f74206d696e742079657400000000000000600082015250565b7f45524332303a207472616e736665722066726f6d20746865207a65726f20616460008201527f6472657373000000000000000000000000000000000000000000000000000000602082015250565b7f454e533a20546f6b656e7320616c726561647920636c61696d65642e00000000600082015250565b7f53616665436173743a2076616c756520646f65736e27742066697420696e203360008201527f3220626974730000000000000000000000000000000000000000000000000000602082015250565b7f45524332303a20617070726f76652066726f6d20746865207a65726f2061646460008201527f7265737300000000000000000000000000000000000000000000000000000000602082015250565b7f45524332303a2064656372656173656420616c6c6f77616e63652062656c6f7760008201527f207a65726f000000000000000000000000000000000000000000000000000000602082015250565b7f45524332303a206d696e7420746f20746865207a65726f206164647265737300600082015250565b61452d81613c1e565b811461453857600080fd5b50565b61454481613c3c565b811461454f57600080fd5b50565b61455b81613c8e565b811461456657600080fd5b50565b61457281613c98565b811461457d57600080fd5b50565b61458981613ca8565b811461459457600080fd5b5056fea2646970667358221220533a0b26caa03cffb3e4344a4659e7eecda272cc3fb041fa74e51aebeebac6a764736f6c63430008070033",
  "linkReferences": {},
  "deployedLinkReferences": {}
}