{
  "address": "0xAa4062dDc27CE3607c16707B9bb501b039065b0b",
  "abi": [
    {
      "inputs": [],
      "stateMutability": "nonpayable",
      "type": "constructor"
    },
    {
      "inputs": [],
      "name": "AccessControlBadConfirmation",
      "type": "error"
    },
    {
      "inputs": [
        {
          "internalType": "address",
          "name": "account",
          "type": "address"
        },
        {
          "internalType": "bytes32",
          "name": "neededRole",
          "type": "bytes32"
        }
      ],
      "name": "AccessControlUnauthorizedAccount",
      "type": "error"
    },
    {
      "inputs": [
        {
          "internalType": "address",
          "name": "target",
          "type": "address"
        }
      ],
      "name": "AddressEmptyCode",
      "type": "error"
    },
    {
      "inputs": [],
      "name": "CheckpointUnorderedInsertion",
      "type": "error"
    },
    {
      "inputs": [],
      "name": "ECDSAInvalidSignature",
      "type": "error"
    },
    {
      "inputs": [
        {
          "internalType": "uint256",
          "name": "length",
          "type": "uint256"
        }
      ],
      "name": "ECDSAInvalidSignatureLength",
      "type": "error"
    },
    {
      "inputs": [
        {
          "internalType": "bytes32",
          "name": "s",
          "type": "bytes32"
        }
      ],
      "name": "ECDSAInvalidSignatureS",
      "type": "error"
    },
    {
      "inputs": [
        {
          "internalType": "address",
          "name": "implementation",
          "type": "address"
        }
      ],
      "name": "ERC1967InvalidImplementation",
      "type": "error"
    },
    {
      "inputs": [],
      "name": "ERC1967NonPayable",
      "type": "error"
    },
    {
      "inputs": [
        {
          "internalType": "uint256",
          "name": "increasedSupply",
          "type": "uint256"
        },
        {
          "internalType": "uint256",
          "name": "cap",
          "type": "uint256"
        }
      ],
      "name": "ERC20ExceededSafeSupply",
      "type": "error"
    },
    {
      "inputs": [
        {
          "internalType": "address",
          "name": "spender",
          "type": "address"
        },
        {
          "internalType": "uint256",
          "name": "allowance",
          "type": "uint256"
        },
        {
          "internalType": "uint256",
          "name": "needed",
          "type": "uint256"
        }
      ],
      "name": "ERC20InsufficientAllowance",
      "type": "error"
    },
    {
      "inputs": [
        {
          "internalType": "address",
          "name": "sender",
          "type": "address"
        },
        {
          "internalType": "uint256",
          "name": "balance",
          "type": "uint256"
        },
        {
          "internalType": "uint256",
          "name": "needed",
          "type": "uint256"
        }
      ],
      "name": "ERC20InsufficientBalance",
      "type": "error"
    },
    {
      "inputs": [
        {
          "internalType": "address",
          "name": "approver",
          "type": "address"
        }
      ],
      "name": "ERC20InvalidApprover",
      "type": "error"
    },
    {
      "inputs": [
        {
          "internalType": "address",
          "name": "receiver",
          "type": "address"
        }
      ],
      "name": "ERC20InvalidReceiver",
      "type": "error"
    },
    {
      "inputs": [
        {
          "internalType": "address",
          "name": "sender",
          "type": "address"
        }
      ],
      "name": "ERC20InvalidSender",
      "type": "error"
    },
    {
      "inputs": [
        {
          "internalType": "address",
          "name": "spender",
          "type": "address"
        }
      ],
      "name": "ERC20InvalidSpender",
      "type": "error"
    },
    {
      "inputs": [
        {
          "internalType": "uint256",
          "name": "deadline",
          "type": "uint256"
        }
      ],
      "name": "ERC2612ExpiredSignature",
      "type": "error"
    },
    {
      "inputs": [
        {
          "internalType": "address",
          "name": "signer",
          "type": "address"
        },
        {
          "internalType": "address",
          "name": "owner",
          "type": "address"
        }
      ],
      "name": "ERC2612InvalidSigner",
      "type": "error"
    },
    {
      "inputs": [
        {
          "internalType": "uint256",
          "name": "timepoint",
          "type": "uint256"
        },
        {
          "internalType": "uint48",
          "name": "clock",
          "type": "uint48"
        }
      ],
      "name": "ERC5805FutureLookup",
      "type": "error"
    },
    {
      "inputs": [],
      "name": "ERC6372InconsistentClock",
      "type": "error"
    },
    {
      "inputs": [],
      "name": "FailedInnerCall",
      "type": "error"
    },
    {
      "inputs": [
        {
          "internalType": "address",
          "name": "account",
          "type": "address"
        },
        {
          "internalType": "uint256",
          "name": "currentNonce",
          "type": "uint256"
        }
      ],
      "name": "InvalidAccountNonce",
      "type": "error"
    },
    {
      "inputs": [],
      "name": "InvalidInitialization",
      "type": "error"
    },
    {
      "inputs": [],
      "name": "NotInitializing",
      "type": "error"
    },
    {
      "inputs": [
        {
          "internalType": "uint8",
          "name": "bits",
          "type": "uint8"
        },
        {
          "internalType": "uint256",
          "name": "value",
          "type": "uint256"
        }
      ],
      "name": "SafeCastOverflowedUintDowncast",
      "type": "error"
    },
    {
      "inputs": [],
      "name": "UUPSUnauthorizedCallContext",
      "type": "error"
    },
    {
      "inputs": [
        {
          "internalType": "bytes32",
          "name": "slot",
          "type": "bytes32"
        }
      ],
      "name": "UUPSUnsupportedProxiableUUID",
      "type": "error"
    },
    {
      "inputs": [
        {
          "internalType": "uint256",
          "name": "expiry",
          "type": "uint256"
        }
      ],
      "name": "VotesExpiredSignature",
      "type": "error"
    },
    {
      "anonymous": false,
      "inputs": [
        {
          "indexed": true,
          "internalType": "address",
          "name": "owner",
          "type": "address"
        },
        {
          "indexed": true,
          "internalType": "address",
          "name": "spender",
          "type": "address"
        },
        {
          "indexed": false,
          "internalType": "uint256",
          "name": "value",
          "type": "uint256"
        }
      ],
      "name": "Approval",
      "type": "event"
    },
    {
      "anonymous": false,
      "inputs": [
        {
          "indexed": true,
          "internalType": "address",
          "name": "delegator",
          "type": "address"
        },
        {
          "indexed": true,
          "internalType": "address",
          "name": "fromDelegate",
          "type": "address"
        },
        {
          "indexed": true,
          "internalType": "address",
          "name": "toDelegate",
          "type": "address"
        }
      ],
      "name": "DelegateChanged",
      "type": "event"
    },
    {
      "anonymous": false,
      "inputs": [
        {
          "indexed": true,
          "internalType": "address",
          "name": "delegate",
          "type": "address"
        },
        {
          "indexed": false,
          "internalType": "uint256",
          "name": "previousVotes",
          "type": "uint256"
        },
        {
          "indexed": false,
          "internalType": "uint256",
          "name": "newVotes",
          "type": "uint256"
        }
      ],
      "name": "DelegateVotesChanged",
      "type": "event"
    },
    {
      "anonymous": false,
      "inputs": [],
      "name": "EIP712DomainChanged",
      "type": "event"
    },
    {
      "anonymous": false,
      "inputs": [
        {
          "indexed": false,
          "internalType": "uint64",
          "name": "version",
          "type": "uint64"
        }
      ],
      "name": "Initialized",
      "type": "event"
    },
    {
      "anonymous": false,
      "inputs": [
        {
          "indexed": true,
          "internalType": "bytes32",
          "name": "role",
          "type": "bytes32"
        },
        {
          "indexed": true,
          "internalType": "bytes32",
          "name": "previousAdminRole",
          "type": "bytes32"
        },
        {
          "indexed": true,
          "internalType": "bytes32",
          "name": "newAdminRole",
          "type": "bytes32"
        }
      ],
      "name": "RoleAdminChanged",
      "type": "event"
    },
    {
      "anonymous": false,
      "inputs": [
        {
          "indexed": true,
          "internalType": "bytes32",
          "name": "role",
          "type": "bytes32"
        },
        {
          "indexed": true,
          "internalType": "address",
          "name": "account",
          "type": "address"
        },
        {
          "indexed": true,
          "internalType": "address",
          "name": "sender",
          "type": "address"
        }
      ],
      "name": "RoleGranted",
      "type": "event"
    },
    {
      "anonymous": false,
      "inputs": [
        {
          "indexed": true,
          "internalType": "bytes32",
          "name": "role",
          "type": "bytes32"
        },
        {
          "indexed": true,
          "internalType": "address",
          "name": "account",
          "type": "address"
        },
        {
          "indexed": true,
          "internalType": "address",
          "name": "sender",
          "type": "address"
        }
      ],
      "name": "RoleRevoked",
      "type": "event"
    },
    {
      "anonymous": false,
      "inputs": [
        {
          "indexed": true,
          "internalType": "address",
          "name": "from",
          "type": "address"
        },
        {
          "indexed": true,
          "internalType": "address",
          "name": "to",
          "type": "address"
        },
        {
          "indexed": false,
          "internalType": "uint256",
          "name": "value",
          "type": "uint256"
        }
      ],
      "name": "Transfer",
      "type": "event"
    },
    {
      "anonymous": false,
      "inputs": [
        {
          "indexed": true,
          "internalType": "address",
          "name": "implementation",
          "type": "address"
        }
      ],
      "name": "Upgraded",
      "type": "event"
    },
    {
      "inputs": [],
      "name": "CLOCK_MODE",
      "outputs": [
        {
          "internalType": "string",
          "name": "",
          "type": "string"
        }
      ],
      "stateMutability": "pure",
      "type": "function"
    },
    {
      "inputs": [],
      "name": "DEFAULT_ADMIN_ROLE",
      "outputs": [
        {
          "internalType": "bytes32",
          "name": "",
          "type": "bytes32"
        }
      ],
      "stateMutability": "view",
      "type": "function"
    },
    {
      "inputs": [],
      "name": "DOMAIN_SEPARATOR",
      "outputs": [
        {
          "internalType": "bytes32",
          "name": "",
          "type": "bytes32"
        }
      ],
      "stateMutability": "view",
      "type": "function"
    },
    {
      "inputs": [],
      "name": "UPGRADER_ROLE",
      "outputs": [
        {
          "internalType": "bytes32",
          "name": "",
          "type": "bytes32"
        }
      ],
      "stateMutability": "view",
      "type": "function"
    },
    {
      "inputs": [],
      "name": "UPGRADE_INTERFACE_VERSION",
      "outputs": [
        {
          "internalType": "string",
          "name": "",
          "type": "string"
        }
      ],
      "stateMutability": "view",
      "type": "function"
    },
    {
      "inputs": [
        {
          "internalType": "address",
          "name": "owner",
          "type": "address"
        },
        {
          "internalType": "address",
          "name": "spender",
          "type": "address"
        }
      ],
      "name": "allowance",
      "outputs": [
        {
          "internalType": "uint256",
          "name": "",
          "type": "uint256"
        }
      ],
      "stateMutability": "view",
      "type": "function"
    },
    {
      "inputs": [
        {
          "internalType": "address",
          "name": "spender",
          "type": "address"
        },
        {
          "internalType": "uint256",
          "name": "value",
          "type": "uint256"
        }
      ],
      "name": "approve",
      "outputs": [
        {
          "internalType": "bool",
          "name": "",
          "type": "bool"
        }
      ],
      "stateMutability": "nonpayable",
      "type": "function"
    },
    {
      "inputs": [
        {
          "internalType": "address",
          "name": "account",
          "type": "address"
        }
      ],
      "name": "balanceOf",
      "outputs": [
        {
          "internalType": "uint256",
          "name": "",
          "type": "uint256"
        }
      ],
      "stateMutability": "view",
      "type": "function"
    },
    {
      "inputs": [
        {
          "internalType": "address",
          "name": "account",
          "type": "address"
        },
        {
          "internalType": "uint32",
          "name": "pos",
          "type": "uint32"
        }
      ],
      "name": "checkpoints",
      "outputs": [
        {
          "components": [
            {
              "internalType": "uint48",
              "name": "_key",
              "type": "uint48"
            },
            {
              "internalType": "uint208",
              "name": "_value",
              "type": "uint208"
            }
          ],
          "internalType": "struct Checkpoints.Checkpoint208",
          "name": "",
          "type": "tuple"
        }
      ],
      "stateMutability": "view",
      "type": "function"
    },
    {
      "inputs": [],
      "name": "clock",
      "outputs": [
        {
          "internalType": "uint48",
          "name": "",
          "type": "uint48"
        }
      ],
      "stateMutability": "view",
      "type": "function"
    },
    {
      "inputs": [],
      "name": "decimals",
      "outputs": [
        {
          "internalType": "uint8",
          "name": "",
          "type": "uint8"
        }
      ],
      "stateMutability": "view",
      "type": "function"
    },
    {
      "inputs": [
        {
          "internalType": "address",
          "name": "delegatee",
          "type": "address"
        }
      ],
      "name": "delegate",
      "outputs": [],
      "stateMutability": "nonpayable",
      "type": "function"
    },
    {
      "inputs": [
        {
          "internalType": "address",
          "name": "delegatee",
          "type": "address"
        },
        {
          "internalType": "uint256",
          "name": "nonce",
          "type": "uint256"
        },
        {
          "internalType": "uint256",
          "name": "expiry",
          "type": "uint256"
        },
        {
          "internalType": "uint8",
          "name": "v",
          "type": "uint8"
        },
        {
          "internalType": "bytes32",
          "name": "r",
          "type": "bytes32"
        },
        {
          "internalType": "bytes32",
          "name": "s",
          "type": "bytes32"
        }
      ],
      "name": "delegateBySig",
      "outputs": [],
      "stateMutability": "nonpayable",
      "type": "function"
    },
    {
      "inputs": [
        {
          "internalType": "address",
          "name": "account",
          "type": "address"
        }
      ],
      "name": "delegates",
      "outputs": [
        {
          "internalType": "address",
          "name": "",
          "type": "address"
        }
      ],
      "stateMutability": "view",
      "type": "function"
    },
    {
      "inputs": [],
      "name": "eip712Domain",
      "outputs": [
        {
          "internalType": "bytes1",
          "name": "fields",
          "type": "bytes1"
        },
        {
          "internalType": "string",
          "name": "name",
          "type": "string"
        },
        {
          "internalType": "string",
          "name": "version",
          "type": "string"
        },
        {
          "internalType": "uint256",
          "name": "chainId",
          "type": "uint256"
        },
        {
          "internalType": "address",
          "name": "verifyingContract",
          "type": "address"
        },
        {
          "internalType": "bytes32",
          "name": "salt",
          "type": "bytes32"
        },
        {
          "internalType": "uint256[]",
          "name": "extensions",
          "type": "uint256[]"
        }
      ],
      "stateMutability": "view",
      "type": "function"
    },
    {
      "inputs": [
        {
          "internalType": "uint256",
          "name": "timepoint",
          "type": "uint256"
        }
      ],
      "name": "getPastTotalSupply",
      "outputs": [
        {
          "internalType": "uint256",
          "name": "",
          "type": "uint256"
        }
      ],
      "stateMutability": "view",
      "type": "function"
    },
    {
      "inputs": [
        {
          "internalType": "address",
          "name": "account",
          "type": "address"
        },
        {
          "internalType": "uint256",
          "name": "timepoint",
          "type": "uint256"
        }
      ],
      "name": "getPastVotes",
      "outputs": [
        {
          "internalType": "uint256",
          "name": "",
          "type": "uint256"
        }
      ],
      "stateMutability": "view",
      "type": "function"
    },
    {
      "inputs": [
        {
          "internalType": "bytes32",
          "name": "role",
          "type": "bytes32"
        }
      ],
      "name": "getRoleAdmin",
      "outputs": [
        {
          "internalType": "bytes32",
          "name": "",
          "type": "bytes32"
        }
      ],
      "stateMutability": "view",
      "type": "function"
    },
    {
      "inputs": [
        {
          "internalType": "address",
          "name": "account",
          "type": "address"
        }
      ],
      "name": "getVotes",
      "outputs": [
        {
          "internalType": "uint256",
          "name": "",
          "type": "uint256"
        }
      ],
      "stateMutability": "view",
      "type": "function"
    },
    {
      "inputs": [
        {
          "internalType": "bytes32",
          "name": "role",
          "type": "bytes32"
        },
        {
          "internalType": "address",
          "name": "account",
          "type": "address"
        }
      ],
      "name": "grantRole",
      "outputs": [],
      "stateMutability": "nonpayable",
      "type": "function"
    },
    {
      "inputs": [
        {
          "internalType": "bytes32",
          "name": "role",
          "type": "bytes32"
        },
        {
          "internalType": "address",
          "name": "account",
          "type": "address"
        }
      ],
      "name": "hasRole",
      "outputs": [
        {
          "internalType": "bool",
          "name": "",
          "type": "bool"
        }
      ],
      "stateMutability": "view",
      "type": "function"
    },
    {
      "inputs": [
        {
          "internalType": "string",
          "name": "name",
          "type": "string"
        },
        {
          "internalType": "string",
          "name": "symbol",
          "type": "string"
        },
        {
          "internalType": "uint256",
          "name": "intialSupply",
          "type": "uint256"
        }
      ],
      "name": "initialize",
      "outputs": [],
      "stateMutability": "nonpayable",
      "type": "function"
    },
    {
      "inputs": [],
      "name": "name",
      "outputs": [
        {
          "internalType": "string",
          "name": "",
          "type": "string"
        }
      ],
      "stateMutability": "view",
      "type": "function"
    },
    {
      "inputs": [
        {
          "internalType": "address",
          "name": "owner",
          "type": "address"
        }
      ],
      "name": "nonces",
      "outputs": [
        {
          "internalType": "uint256",
          "name": "",
          "type": "uint256"
        }
      ],
      "stateMutability": "view",
      "type": "function"
    },
    {
      "inputs": [
        {
          "internalType": "address",
          "name": "account",
          "type": "address"
        }
      ],
      "name": "numCheckpoints",
      "outputs": [
        {
          "internalType": "uint32",
          "name": "",
          "type": "uint32"
        }
      ],
      "stateMutability": "view",
      "type": "function"
    },
    {
      "inputs": [
        {
          "internalType": "address",
          "name": "owner",
          "type": "address"
        },
        {
          "internalType": "address",
          "name": "spender",
          "type": "address"
        },
        {
          "internalType": "uint256",
          "name": "value",
          "type": "uint256"
        },
        {
          "internalType": "uint256",
          "name": "deadline",
          "type": "uint256"
        },
        {
          "internalType": "uint8",
          "name": "v",
          "type": "uint8"
        },
        {
          "internalType": "bytes32",
          "name": "r",
          "type": "bytes32"
        },
        {
          "internalType": "bytes32",
          "name": "s",
          "type": "bytes32"
        }
      ],
      "name": "permit",
      "outputs": [],
      "stateMutability": "nonpayable",
      "type": "function"
    },
    {
      "inputs": [],
      "name": "proxiableUUID",
      "outputs": [
        {
          "internalType": "bytes32",
          "name": "",
          "type": "bytes32"
        }
      ],
      "stateMutability": "view",
      "type": "function"
    },
    {
      "inputs": [
        {
          "internalType": "bytes32",
          "name": "role",
          "type": "bytes32"
        },
        {
          "internalType": "address",
          "name": "callerConfirmation",
          "type": "address"
        }
      ],
      "name": "renounceRole",
      "outputs": [],
      "stateMutability": "nonpayable",
      "type": "function"
    },
    {
      "inputs": [
        {
          "internalType": "bytes32",
          "name": "role",
          "type": "bytes32"
        },
        {
          "internalType": "address",
          "name": "account",
          "type": "address"
        }
      ],
      "name": "revokeRole",
      "outputs": [],
      "stateMutability": "nonpayable",
      "type": "function"
    },
    {
      "inputs": [
        {
          "internalType": "bytes4",
          "name": "interfaceId",
          "type": "bytes4"
        }
      ],
      "name": "supportsInterface",
      "outputs": [
        {
          "internalType": "bool",
          "name": "",
          "type": "bool"
        }
      ],
      "stateMutability": "view",
      "type": "function"
    },
    {
      "inputs": [],
      "name": "symbol",
      "outputs": [
        {
          "internalType": "string",
          "name": "",
          "type": "string"
        }
      ],
      "stateMutability": "view",
      "type": "function"
    },
    {
      "inputs": [],
      "name": "totalSupply",
      "outputs": [
        {
          "internalType": "uint256",
          "name": "",
          "type": "uint256"
        }
      ],
      "stateMutability": "view",
      "type": "function"
    },
    {
      "inputs": [
        {
          "internalType": "address",
          "name": "to",
          "type": "address"
        },
        {
          "internalType": "uint256",
          "name": "value",
          "type": "uint256"
        }
      ],
      "name": "transfer",
      "outputs": [
        {
          "internalType": "bool",
          "name": "",
          "type": "bool"
        }
      ],
      "stateMutability": "nonpayable",
      "type": "function"
    },
    {
      "inputs": [
        {
          "internalType": "address",
          "name": "from",
          "type": "address"
        },
        {
          "internalType": "address",
          "name": "to",
          "type": "address"
        },
        {
          "internalType": "uint256",
          "name": "value",
          "type": "uint256"
        }
      ],
      "name": "transferFrom",
      "outputs": [
        {
          "internalType": "bool",
          "name": "",
          "type": "bool"
        }
      ],
      "stateMutability": "nonpayable",
      "type": "function"
    },
    {
      "inputs": [
        {
          "internalType": "address",
          "name": "newImplementation",
          "type": "address"
        },
        {
          "internalType": "bytes",
          "name": "data",
          "type": "bytes"
        }
      ],
      "name": "upgradeToAndCall",
      "outputs": [],
      "stateMutability": "payable",
      "type": "function"
    }
  ],
  "bytecode": {
    "object": "0x60a0604052306080523480156200001557600080fd5b506200002062000026565b620000da565b7ff0c57e16840df040f15088dc2f81fe391c3923bec73e23a9662efc9c229c6a00805468010000000000000000900460ff1615620000775760405163f92ee8a960e01b815260040160405180910390fd5b80546001600160401b0390811614620000d75780546001600160401b0319166001600160401b0390811782556040519081527fc7f505b2f371ae2175ee4913f4499e1f2633a7b5936321eed1cdaeb6115181d29060200160405180910390a15b50565b608051612dbc6200010460003960008181611299015281816112c2015261140c0152612dbc6000f3fe6080604052600436106101c45760003560e01c806370a08231116100f8578063a9059cbb11610090578063a9059cbb1461052c578063ad3cb1cc1461054c578063b119490e1461057d578063c3cda5201461059d578063d505accf146105bd578063d547741f146105dd578063dd62ed3e146105fd578063f1127ed81461061d578063f72c0d8b1461066957600080fd5b806370a08231146104175780637ecebe001461043757806384b0196e146104575780638e539e8c1461047f57806391d148541461049f57806391ddadf4146104bf57806395d89b41146104e25780639ab24eb0146104f7578063a217fddf1461051757600080fd5b80633644e5151161016b5780633644e515146102e157806336568abe146102f65780633a46b1a8146103165780634bf5d7e9146103365780634f1ef2861461036d57806352d1902d14610380578063587cde1e146103955780635c19a95c146103c25780636fcfff45146103e257600080fd5b806301ffc9a7146101c957806306fdde03146101fe578063095ea7b31461022057806318160ddd1461024057806323b872dd14610263578063248a9ca3146102835780632f2ff15d146102a3578063313ce567146102c5575b600080fd5b3480156101d557600080fd5b506101e96101e43660046125dd565b61068b565b60405190151581526020015b60405180910390f35b34801561020a57600080fd5b506102136106c2565b6040516101f59190612657565b34801561022c57600080fd5b506101e961023b366004612686565b610763565b34801561024c57600080fd5b5061025561077b565b6040519081526020016101f5565b34801561026f57600080fd5b506101e961027e3660046126b0565b610790565b34801561028f57600080fd5b5061025561029e3660046126ec565b6107b6565b3480156102af57600080fd5b506102c36102be366004612705565b6107d6565b005b3480156102d157600080fd5b50604051601281526020016101f5565b3480156102ed57600080fd5b506102556107f8565b34801561030257600080fd5b506102c3610311366004612705565b610807565b34801561032257600080fd5b50610255610331366004612686565b61083f565b34801561034257600080fd5b5060408051808201909152600e81526d06d6f64653d74696d657374616d760941b6020820152610213565b6102c361037b366004612747565b6108c9565b34801561038c57600080fd5b506102556108e8565b3480156103a157600080fd5b506103b56103b0366004612809565b610905565b6040516101f59190612824565b3480156103ce57600080fd5b506102c36103dd366004612809565b610934565b3480156103ee57600080fd5b506104026103fd366004612809565b61093f565b60405163ffffffff90911681526020016101f5565b34801561042357600080fd5b50610255610432366004612809565b61094a565b34801561044357600080fd5b50610255610452366004612809565b610975565b34801561046357600080fd5b5061046c610980565b6040516101f59796959493929190612838565b34801561048b57600080fd5b5061025561049a3660046126ec565b6109ee565b3480156104ab57600080fd5b506101e96104ba366004612705565b610a5c565b3480156104cb57600080fd5b5060405165ffffffffffff421681526020016101f5565b3480156104ee57600080fd5b50610213610a92565b34801561050357600080fd5b50610255610512366004612809565b610aaf565b34801561052357600080fd5b50610255600081565b34801561053857600080fd5b506101e9610547366004612686565b610af0565b34801561055857600080fd5b50610213604051806040016040528060058152602001640352e302e360dc1b81525081565b34801561058957600080fd5b506102c3610598366004612917565b610afe565b3480156105a957600080fd5b506102c36105b836600461299c565b610d02565b3480156105c957600080fd5b506102c36105d83660046129f4565b610dbf565b3480156105e957600080fd5b506102c36105f8366004612705565b610ecf565b34801561060957600080fd5b50610255610618366004612a5e565b610eeb565b34801561062957600080fd5b5061063d610638366004612a88565b610f27565b60408051825165ffffffffffff1681526020928301516001600160d01b031692810192909252016101f5565b34801561067557600080fd5b50610255600080516020612d4783398151915281565b60006001600160e01b03198216637965db0b60e01b14806106bc57506301ffc9a760e01b6001600160e01b03198316145b92915050565b606060006106ce610f45565b90508060030180546106df90612ac8565b80601f016020809104026020016040519081016040528092919081815260200182805461070b90612ac8565b80156107585780601f1061072d57610100808354040283529160200191610758565b820191906000526020600020905b81548152906001019060200180831161073b57829003601f168201915b505050505091505090565b600033610771818585610f69565b5060019392505050565b600080610786610f45565b6002015492915050565b60003361079e858285610f76565b6107a9858585610fc3565b60019150505b9392505050565b6000806107c1611022565b60009384526020525050604090206001015490565b6107df826107b6565b6107e881611046565b6107f28383611053565b50505050565b60006108026110fb565b905090565b6001600160a01b03811633146108305760405163334bd91960e11b815260040160405180910390fd5b61083a8282611105565b505050565b60008061084a61117d565b90504265ffffffffffff8116841061088b57604051637669fc0f60e11b81526004810185905265ffffffffffff821660248201526044015b60405180910390fd5b6108b7610897856111a1565b6001600160a01b03871660009081526001850160205260409020906111d8565b6001600160d01b031695945050505050565b6108d161128e565b6108da82611335565b6108e4828261134d565b5050565b60006108f2611401565b50600080516020612d6783398151915290565b60008061091061117d565b6001600160a01b039384166000908152602091909152604090205490921692915050565b336108e4818361144a565b60006106bc826114d1565b600080610955610f45565b6001600160a01b0390931660009081526020939093525050604090205490565b60006106bc82611503565b600060608060008060006060600061099661150e565b80549091501580156109aa57506001810154155b6109b357600080fd5b6109bb611532565b6109c361154f565b60408051600080825260208201909252600f60f81b9c939b5091995046985030975095509350915050565b6000806109f961117d565b90504265ffffffffffff81168410610a3557604051637669fc0f60e11b81526004810185905265ffffffffffff82166024820152604401610882565b610a4b610a41856111a1565b60028401906111d8565b6001600160d01b0316949350505050565b600080610a67611022565b6000948552602090815260408086206001600160a01b03959095168652939052505090205460ff1690565b60606000610a9e610f45565b90508060040180546106df90612ac8565b600080610aba61117d565b6001600160a01b03841660009081526001820160205260409020909150610ae09061155b565b6001600160d01b03169392505050565b600033610771818585610fc3565b7ff0c57e16840df040f15088dc2f81fe391c3923bec73e23a9662efc9c229c6a008054600160401b810460ff16159067ffffffffffffffff16600081158015610b445750825b905060008267ffffffffffffffff166001148015610b615750303b155b905081158015610b6f575080155b15610b8d5760405163f92ee8a960e01b815260040160405180910390fd5b845467ffffffffffffffff191660011785558315610bb757845460ff60401b1916600160401b1785555b610c2a8a8a8080601f01602080910402602001604051908101604052809392919081815260200183838082843760009201919091525050604080516020601f8e018190048102820181019092528c815292508c91508b908190840183828082843760009201919091525061159492505050565b610c698a8a8080601f0160208091040260200160405190810160405280939291908181526020018383808284376000920191909152506115a692505050565b610c716115d1565b610c796115d1565b610c816115d1565b610c8c600033611053565b50610ca5600080516020612d4783398151915233611053565b50610cb033876115d9565b8315610cf657845460ff60401b19168555604051600181527fc7f505b2f371ae2175ee4913f4499e1f2633a7b5936321eed1cdaeb6115181d29060200160405180910390a15b50505050505050505050565b83421115610d2657604051632341d78760e11b815260048101859052602401610882565b604080517fe48329057bfd03d55e49b547132e39cffd9c1820ad7b9d4c5307691425d15adf60208201526001600160a01b038816918101919091526060810186905260808101859052600090610da090610d989060a0016040516020818303038152906040528051906020012061160f565b85858561163c565b9050610dac818761166a565b610db6818861144a565b50505050505050565b83421115610de35760405163313c898160e11b815260048101859052602401610882565b60007f6e71edae12b1b97f4d1f60370fef10105fa2faae0126114a169c64845d6126c9888888610e128c6116a9565b6040805160208101969096526001600160a01b0394851690860152929091166060840152608083015260a082015260c0810186905260e0016040516020818303038152906040528051906020012090506000610e6d8261160f565b90506000610e7d8287878761163c565b9050896001600160a01b0316816001600160a01b031614610ec4576040516325c0072360e11b81526001600160a01b0380831660048301528b166024820152604401610882565b610cf68a8a8a610f69565b610ed8826107b6565b610ee181611046565b6107f28383611105565b600080610ef6610f45565b6001600160a01b03948516600090815260019190910160209081526040808320959096168252939093525050205490565b60408051808201909152600080825260208201526107af83836116eb565b7f52c63247e1f47db19d5ce0460030c497f067ca4cebf71ba98eeadabe20bace0090565b61083a8383836001611738565b6000610f828484610eeb565b905060001981146107f25781811015610fb457828183604051637dc7a0d960e11b815260040161088293929190612b02565b6107f284848484036000611738565b6001600160a01b038316610fed576000604051634b637e8f60e11b81526004016108829190612824565b6001600160a01b03821661101757600060405163ec442f0560e01b81526004016108829190612824565b61083a83838361181d565b7f02dd7bc7dec4dceedda775e58dd541e08a116c6c53815c0bd028192f7b62680090565b6110508133611828565b50565b60008061105e611022565b905061106a8484610a5c565b6110ea576000848152602082815260408083206001600160a01b03871684529091529020805460ff191660011790556110a03390565b6001600160a01b0316836001600160a01b0316857f2f8788117e7eff1d82e926ec794901d17c78024a50270940304540a733656f0d60405160405180910390a460019150506106bc565b60009150506106bc565b5092915050565b6000610802611861565b600080611110611022565b905061111c8484610a5c565b156110ea576000848152602082815260408083206001600160a01b0387168085529252808320805460ff1916905551339287917ff6391f5c32d9c69d2a47ea670b442974b53935d1edc7fd64eb21e047a839171b9190a460019150506106bc565b7fe8b26c30fad74198956032a3533d903385d56dd795af560196f9c78d4af40d0090565b600065ffffffffffff8211156111d4576040516306dfcc6560e41b81526030600482015260248101839052604401610882565b5090565b8154600090818160058111156112375760006111f3846118d5565b6111fd9085612b39565b60008881526020902090915081015465ffffffffffff908116908716101561122757809150611235565b611232816001612b4c565b92505b505b6000611245878785856119bd565b905080156112805761126a8761125c600184612b39565b600091825260209091200190565b54600160301b90046001600160d01b0316611283565b60005b979650505050505050565b306001600160a01b037f000000000000000000000000000000000000000000000000000000000000000016148061131557507f00000000000000000000000000000000000000000000000000000000000000006001600160a01b0316611309600080516020612d67833981519152546001600160a01b031690565b6001600160a01b031614155b156113335760405163703e46dd60e11b815260040160405180910390fd5b565b600080516020612d478339815191526108e481611046565b816001600160a01b03166352d1902d6040518163ffffffff1660e01b8152600401602060405180830381865afa9250505080156113a7575060408051601f3d908101601f191682019092526113a491810190612b5f565b60015b6113c65781604051634c9c8ce360e01b81526004016108829190612824565b600080516020612d6783398151915281146113f757604051632a87526960e21b815260048101829052602401610882565b61083a8383611a1f565b306001600160a01b037f000000000000000000000000000000000000000000000000000000000000000016146113335760405163703e46dd60e11b815260040160405180910390fd5b600061145461117d565b9050600061146184610905565b6001600160a01b0385811660008181526020869052604080822080546001600160a01b031916898616908117909155905194955093928516927f3134e8a2e6d97e929a7e54011ea5485d7d196dd5f0ba4d4ef95803e8e3fc257f9190a46107f281846114cc87611a75565b611a80565b6000806114dc61117d565b6001600160a01b03841660009081526001820160205260409020549091506107af90611bfd565b60006106bc82611c2e565b7fa16a46d94261c7517cc8ff89f61c0ce93598e3c849801011dee649a6a557d10090565b6060600061153e61150e565b90508060020180546106df90612ac8565b606060006106ce61150e565b8054600090801561158b576115758361125c600184612b39565b54600160301b90046001600160d01b03166107af565b60009392505050565b61159c611c57565b6108e48282611ca0565b6115ae611c57565b61105081604051806040016040528060018152602001603160f81b815250611cd1565b611333611c57565b6001600160a01b03821661160357600060405163ec442f0560e01b81526004016108829190612824565b6108e46000838361181d565b60006106bc61161c6110fb565b8360405161190160f01b8152600281019290925260228201526042902090565b60008060008061164e88888888611d12565b92509250925061165e8282611dd7565b50909695505050505050565b6000611675836116a9565b905080821461083a576040516301d4b62360e61b81526001600160a01b038416600482015260248101829052604401610882565b6001600160a01b031660009081527f5ab42ced628888259c08ac98db1eb0cf702fc1501344311d8b100cd1bfe4bb006020526040902080546001810190915590565b6040805180820190915260008082526020820152600061170961117d565b6001600160a01b038516600090815260018201602052604090209091506117309084611e90565b949350505050565b6000611742610f45565b90506001600160a01b03851661176e57600060405163e602df0560e01b81526004016108829190612824565b6001600160a01b038416611798576000604051634a1406b160e11b81526004016108829190612824565b6001600160a01b0380861660009081526001830160209081526040808320938816835292905220839055811561181657836001600160a01b0316856001600160a01b03167f8c5be1e5ebec7d5bd14f71427d1e84f3dd0314c0f7b2291e5b200ac8c7c3b9258560405161180d91815260200190565b60405180910390a35b5050505050565b61083a838383611f00565b6118328282610a5c565b6108e45760405163e2517d3f60e01b81526001600160a01b038216600482015260248101839052604401610882565b60007f8b73c3c69bb8fe3d512ecc4cf759cc79239f7b179b0ffacaa9a75d522b39400f61188c611f66565b611894611fcd565b60408051602081019490945283019190915260608201524660808201523060a082015260c00160405160208183030381529060405280519060200120905090565b6000816000036118e757506000919050565b600060016118f48461200e565b901c6001901b9050600181848161190d5761190d612b78565b048201901c9050600181848161192557611925612b78565b048201901c9050600181848161193d5761193d612b78565b048201901c9050600181848161195557611955612b78565b048201901c9050600181848161196d5761196d612b78565b048201901c9050600181848161198557611985612b78565b048201901c9050600181848161199d5761199d612b78565b048201901c90506107af818285816119b7576119b7612b78565b046120a2565b60005b81831015611a175760006119d484846120b8565b60008781526020902090915065ffffffffffff86169082015465ffffffffffff161115611a0357809250611a11565b611a0e816001612b4c565b93505b506119c0565b509392505050565b611a28826120d3565b6040516001600160a01b038316907fbc7cd75a20ee27fd9adebab32041f755214dbc6bffa90cc0225b39da2e5c2d3b90600090a2805115611a6d5761083a828261212f565b6108e46121a5565b60006106bc8261094a565b6000611a8a61117d565b9050826001600160a01b0316846001600160a01b031614158015611aae5750600082115b156107f2576001600160a01b03841615611b58576001600160a01b038416600090815260018201602052604081208190611af3906121c4611aee876121d0565b612204565b6001600160d01b031691506001600160d01b03169150856001600160a01b03167fdec2bacdd2f05b59de34da9b523dff8be42e5e38e818c82fdb0bae774387a7248383604051611b4d929190918252602082015260400190565b60405180910390a250505b6001600160a01b038316156107f2576001600160a01b038316600090815260018201602052604081208190611b9390612236611aee876121d0565b6001600160d01b031691506001600160d01b03169150846001600160a01b03167fdec2bacdd2f05b59de34da9b523dff8be42e5e38e818c82fdb0bae774387a7248383604051611bed929190918252602082015260400190565b60405180910390a2505050505050565b600063ffffffff8211156111d4576040516306dfcc6560e41b81526020600482015260248101839052604401610882565b6000807f5ab42ced628888259c08ac98db1eb0cf702fc1501344311d8b100cd1bfe4bb00610955565b7ff0c57e16840df040f15088dc2f81fe391c3923bec73e23a9662efc9c229c6a0054600160401b900460ff1661133357604051631afcd79f60e31b815260040160405180910390fd5b611ca8611c57565b6000611cb2610f45565b905060038101611cc28482612bdc565b50600481016107f28382612bdc565b611cd9611c57565b6000611ce361150e565b905060028101611cf38482612bdc565b5060038101611d028382612bdc565b5060008082556001909101555050565b600080806fa2a8918ca85bafe22016d0b997e4df60600160ff1b03841115611d435750600091506003905082611dcd565b604080516000808252602082018084528a905260ff891692820192909252606081018790526080810186905260019060a0016020604051602081039080840390855afa158015611d97573d6000803e3d6000fd5b5050604051601f1901519150506001600160a01b038116611dc357506000925060019150829050611dcd565b9250600091508190505b9450945094915050565b6000826003811115611deb57611deb612c9c565b03611df4575050565b6001826003811115611e0857611e08612c9c565b03611e265760405163f645eedf60e01b815260040160405180910390fd5b6002826003811115611e3a57611e3a612c9c565b03611e5b5760405163fce698f760e01b815260048101829052602401610882565b6003826003811115611e6f57611e6f612c9c565b036108e4576040516335e2f38360e21b815260048101829052602401610882565b6040805180820190915260008082526020820152826000018263ffffffff1681548110611ebf57611ebf612cb2565b60009182526020918290206040805180820190915291015465ffffffffffff81168252600160301b90046001600160d01b0316918101919091529392505050565b611f0b838383612242565b6001600160a01b038316611f5b576000611f2361077b565b90506001600160d01b0380821115611f5857604051630e58ae9360e11b81526004810183905260248101829052604401610882565b50505b61083a83838361236a565b600080611f7161150e565b90506000611f7d611532565b805190915015611f9557805160209091012092915050565b81548015611fa4579392505050565b7fc5d2460186f7233c927e7db2dcc703c0e500b653ca82273b7bfad8045d85a470935050505090565b600080611fd861150e565b90506000611fe461154f565b805190915015611ffc57805160209091012092915050565b60018201548015611fa4579392505050565b600080608083901c1561202357608092831c92015b604083901c1561203557604092831c92015b602083901c1561204757602092831c92015b601083901c1561205957601092831c92015b600883901c1561206b57600892831c92015b600483901c1561207d57600492831c92015b600283901c1561208f57600292831c92015b600183901c156106bc5760010192915050565b60008183106120b157816107af565b5090919050565b60006120c76002848418612cc8565b6107af90848416612b4c565b806001600160a01b03163b6000036121005780604051634c9c8ce360e01b81526004016108829190612824565b600080516020612d6783398151915280546001600160a01b0319166001600160a01b0392909216919091179055565b6060600080846001600160a01b03168460405161214c9190612cea565b600060405180830381855af49150503d8060008114612187576040519150601f19603f3d011682016040523d82523d6000602084013e61218c565b606091505b509150915061219c8583836123d9565b95945050505050565b34156113335760405163b398979f60e01b815260040160405180910390fd5b60006107af8284612d06565b60006001600160d01b038211156111d4576040516306dfcc6560e41b815260d0600482015260248101839052604401610882565b600080612229426122216122178861155b565b868863ffffffff16565b87919061242c565b915091505b935093915050565b60006107af8284612d26565b600061224c610f45565b90506001600160a01b03841661227b57818160020160008282546122709190612b4c565b909155506122da9050565b6001600160a01b038416600090815260208290526040902054828110156122bb5784818460405163391434e360e21b815260040161088293929190612b02565b6001600160a01b03851660009081526020839052604090209083900390555b6001600160a01b0383166122f8576002810180548390039055612317565b6001600160a01b03831660009081526020829052604090208054830190555b826001600160a01b0316846001600160a01b03167fddf252ad1be2c89b69c2b068fc378daa952ba7f163c4a11628f55a4df523b3ef8460405161235c91815260200190565b60405180910390a350505050565b600061237461117d565b90506001600160a01b03841661239a5761239781600201612236611aee856121d0565b50505b6001600160a01b0383166123be576123bb816002016121c4611aee856121d0565b50505b6107f26123ca85610905565b6123d385610905565b84611a80565b6060826123ee576123e98261243a565b6107af565b815115801561240557506001600160a01b0384163b155b156124255783604051639996b31560e01b81526004016108829190612824565b50806107af565b600080612229858585612463565b80511561244a5780518082602001fd5b604051630a12f52160e11b815260040160405180910390fd5b8254600090819080156125825760006124818761125c600185612b39565b60408051808201909152905465ffffffffffff808216808452600160301b9092046001600160d01b0316602084015291925090871610156124d557604051632520601d60e01b815260040160405180910390fd5b805165ffffffffffff80881691160361252157846124f88861125c600186612b39565b80546001600160d01b0392909216600160301b0265ffffffffffff909216919091179055612572565b6040805180820190915265ffffffffffff80881682526001600160d01b0380881660208085019182528b54600181018d5560008d81529190912094519151909216600160301b029216919091179101555b60200151925083915061222e9050565b50506040805180820190915265ffffffffffff80851682526001600160d01b0380851660208085019182528854600181018a5560008a815291822095519251909316600160301b02919093161792019190915590508161222e565b6000602082840312156125ef57600080fd5b81356001600160e01b0319811681146107af57600080fd5b60005b8381101561262257818101518382015260200161260a565b50506000910152565b60008151808452612643816020860160208601612607565b601f01601f19169290920160200192915050565b6020815260006107af602083018461262b565b80356001600160a01b038116811461268157600080fd5b919050565b6000806040838503121561269957600080fd5b6126a28361266a565b946020939093013593505050565b6000806000606084860312156126c557600080fd5b6126ce8461266a565b92506126dc6020850161266a565b9150604084013590509250925092565b6000602082840312156126fe57600080fd5b5035919050565b6000806040838503121561271857600080fd5b823591506127286020840161266a565b90509250929050565b634e487b7160e01b600052604160045260246000fd5b6000806040838503121561275a57600080fd5b6127638361266a565b9150602083013567ffffffffffffffff8082111561278057600080fd5b818501915085601f83011261279457600080fd5b8135818111156127a6576127a6612731565b604051601f8201601f19908116603f011681019083821181831017156127ce576127ce612731565b816040528281528860208487010111156127e757600080fd5b8260208601602083013760006020848301015280955050505050509250929050565b60006020828403121561281b57600080fd5b6107af8261266a565b6001600160a01b0391909116815260200190565b60ff60f81b881681526000602060e08184015261285860e084018a61262b565b838103604085015261286a818a61262b565b606085018990526001600160a01b038816608086015260a0850187905284810360c0860152855180825283870192509083019060005b818110156128bc578351835292840192918401916001016128a0565b50909c9b505050505050505050505050565b60008083601f8401126128e057600080fd5b50813567ffffffffffffffff8111156128f857600080fd5b60208301915083602082850101111561291057600080fd5b9250929050565b60008060008060006060868803121561292f57600080fd5b853567ffffffffffffffff8082111561294757600080fd5b61295389838a016128ce565b9097509550602088013591508082111561296c57600080fd5b50612979888289016128ce565b96999598509660400135949350505050565b803560ff8116811461268157600080fd5b60008060008060008060c087890312156129b557600080fd5b6129be8761266a565b955060208701359450604087013593506129da6060880161298b565b92506080870135915060a087013590509295509295509295565b600080600080600080600060e0888a031215612a0f57600080fd5b612a188861266a565b9650612a266020890161266a565b95506040880135945060608801359350612a426080890161298b565b925060a0880135915060c0880135905092959891949750929550565b60008060408385031215612a7157600080fd5b612a7a8361266a565b91506127286020840161266a565b60008060408385031215612a9b57600080fd5b612aa48361266a565b9150602083013563ffffffff81168114612abd57600080fd5b809150509250929050565b600181811c90821680612adc57607f821691505b602082108103612afc57634e487b7160e01b600052602260045260246000fd5b50919050565b6001600160a01b039390931683526020830191909152604082015260600190565b634e487b7160e01b600052601160045260246000fd5b818103818111156106bc576106bc612b23565b808201808211156106bc576106bc612b23565b600060208284031215612b7157600080fd5b5051919050565b634e487b7160e01b600052601260045260246000fd5b601f82111561083a57600081815260208120601f850160051c81016020861015612bb55750805b601f850160051c820191505b81811015612bd457828155600101612bc1565b505050505050565b815167ffffffffffffffff811115612bf657612bf6612731565b612c0a81612c048454612ac8565b84612b8e565b602080601f831160018114612c3f5760008415612c275750858301515b600019600386901b1c1916600185901b178555612bd4565b600085815260208120601f198616915b82811015612c6e57888601518255948401946001909101908401612c4f565b5085821015612c8c5787850151600019600388901b60f8161c191681555b5050505050600190811b01905550565b634e487b7160e01b600052602160045260246000fd5b634e487b7160e01b600052603260045260246000fd5b600082612ce557634e487b7160e01b600052601260045260246000fd5b500490565b60008251612cfc818460208701612607565b9190910192915050565b6001600160d01b038281168282160390808211156110f4576110f4612b23565b6001600160d01b038181168382160190808211156110f4576110f4612b2356fe189ab7a9244df0848122154315af71fe140f3db0fe014031783b0946b8c9d2e3360894a13ba1a3210667c828492db98dca3e2076cc3735a920a3ca505d382bbca26469706673582212209853d5343f16e09dc7360abd702fafd5116c9505252c0bafdd9981c2baf44a6764736f6c63430008140033",
    "linkReferences": {}
  },
  "methodIdentifiers": {
    "CLOCK_MODE()": "4bf5d7e9",
    "DEFAULT_ADMIN_ROLE()": "a217fddf",
    "DOMAIN_SEPARATOR()": "3644e515",
    "UPGRADER_ROLE()": "f72c0d8b",
    "UPGRADE_INTERFACE_VERSION()": "ad3cb1cc",
    "allowance(address,address)": "dd62ed3e",
    "approve(address,uint256)": "095ea7b3",
    "balanceOf(address)": "70a08231",
    "checkpoints(address,uint32)": "f1127ed8",
    "clock()": "91ddadf4",
    "decimals()": "313ce567",
    "delegate(address)": "5c19a95c",
    "delegateBySig(address,uint256,uint256,uint8,bytes32,bytes32)": "c3cda520",
    "delegates(address)": "587cde1e",
    "eip712Domain()": "84b0196e",
    "getPastTotalSupply(uint256)": "8e539e8c",
    "getPastVotes(address,uint256)": "3a46b1a8",
    "getRoleAdmin(bytes32)": "248a9ca3",
    "getVotes(address)": "9ab24eb0",
    "grantRole(bytes32,address)": "2f2ff15d",
    "hasRole(bytes32,address)": "91d14854",
    "initialize(string,string,uint256)": "b119490e",
    "name()": "06fdde03",
    "nonces(address)": "7ecebe00",
    "numCheckpoints(address)": "6fcfff45",
    "permit(address,address,uint256,uint256,uint8,bytes32,bytes32)": "d505accf",
    "proxiableUUID()": "52d1902d",
    "renounceRole(bytes32,address)": "36568abe",
    "revokeRole(bytes32,address)": "d547741f",
    "supportsInterface(bytes4)": "01ffc9a7",
    "symbol()": "95d89b41",
    "totalSupply()": "18160ddd",
    "transfer(address,uint256)": "a9059cbb",
    "transferFrom(address,address,uint256)": "23b872dd",
    "upgradeToAndCall(address,bytes)": "4f1ef286"
  },
  "id": 98
}