{
  "address": "0xAa4062dDc27CE3607c16707B9bb501b039065b0b",
  "abi": [
    {
      "inputs": [],
      "stateMutability": "nonpayable",
      "type": "constructor"
    },
    {
      "inputs": [],
      "name": "AccessControlBadConfirmation",
      "type": "error"
    },
    {
      "inputs": [
        {
          "internalType": "address",
          "name": "account",
          "type": "address"
        },
        {
          "internalType": "bytes32",
          "name": "neededRole",
          "type": "bytes32"
        }
      ],
      "name": "AccessControlUnauthorizedAccount",
      "type": "error"
    },
    {
      "inputs": [
        {
          "internalType": "address",
          "name": "target",
          "type": "address"
        }
      ],
      "name": "AddressEmptyCode",
      "type": "error"
    },
    {
      "inputs": [],
      "name": "CheckpointUnorderedInsertion",
      "type": "error"
    },
    {
      "inputs": [],
      "name": "ECDSAInvalidSignature",
      "type": "error"
    },
    {
      "inputs": [
        {
          "internalType": "uint256",
          "name": "length",
          "type": "uint256"
        }
      ],
      "name": "ECDSAInvalidSignatureLength",
      "type": "error"
    },
    {
      "inputs": [
        {
          "internalType": "bytes32",
          "name": "s",
          "type": "bytes32"
        }
      ],
      "name": "ECDSAInvalidSignatureS",
      "type": "error"
    },
    {
      "inputs": [
        {
          "internalType": "address",
          "name": "implementation",
          "type": "address"
        }
      ],
      "name": "ERC1967InvalidImplementation",
      "type": "error"
    },
    {
      "inputs": [],
      "name": "ERC1967NonPayable",
      "type": "error"
    },
    {
      "inputs": [
        {
          "internalType": "uint256",
          "name": "increasedSupply",
          "type": "uint256"
        },
        {
          "internalType": "uint256",
          "name": "cap",
          "type": "uint256"
        }
      ],
      "name": "ERC20ExceededSafeSupply",
      "type": "error"
    },
    {
      "inputs": [
        {
          "internalType": "address",
          "name": "spender",
          "type": "address"
        },
        {
          "internalType": "uint256",
          "name": "allowance",
          "type": "uint256"
        },
        {
          "internalType": "uint256",
          "name": "needed",
          "type": "uint256"
        }
      ],
      "name": "ERC20InsufficientAllowance",
      "type": "error"
    },
    {
      "inputs": [
        {
          "internalType": "address",
          "name": "sender",
          "type": "address"
        },
        {
          "internalType": "uint256",
          "name": "balance",
          "type": "uint256"
        },
        {
          "internalType": "uint256",
          "name": "needed",
          "type": "uint256"
        }
      ],
      "name": "ERC20InsufficientBalance",
      "type": "error"
    },
    {
      "inputs": [
        {
          "internalType": "address",
          "name": "approver",
          "type": "address"
        }
      ],
      "name": "ERC20InvalidApprover",
      "type": "error"
    },
    {
      "inputs": [
        {
          "internalType": "address",
          "name": "receiver",
          "type": "address"
        }
      ],
      "name": "ERC20InvalidReceiver",
      "type": "error"
    },
    {
      "inputs": [
        {
          "internalType": "address",
          "name": "sender",
          "type": "address"
        }
      ],
      "name": "ERC20InvalidSender",
      "type": "error"
    },
    {
      "inputs": [
        {
          "internalType": "address",
          "name": "spender",
          "type": "address"
        }
      ],
      "name": "ERC20InvalidSpender",
      "type": "error"
    },
    {
      "inputs": [
        {
          "internalType": "uint256",
          "name": "deadline",
          "type": "uint256"
        }
      ],
      "name": "ERC2612ExpiredSignature",
      "type": "error"
    },
    {
      "inputs": [
        {
          "internalType": "address",
          "name": "signer",
          "type": "address"
        },
        {
          "internalType": "address",
          "name": "owner",
          "type": "address"
        }
      ],
      "name": "ERC2612InvalidSigner",
      "type": "error"
    },
    {
      "inputs": [
        {
          "internalType": "uint256",
          "name": "timepoint",
          "type": "uint256"
        },
        {
          "internalType": "uint48",
          "name": "clock",
          "type": "uint48"
        }
      ],
      "name": "ERC5805FutureLookup",
      "type": "error"
    },
    {
      "inputs": [],
      "name": "ERC6372InconsistentClock",
      "type": "error"
    },
    {
      "inputs": [],
      "name": "FailedInnerCall",
      "type": "error"
    },
    {
      "inputs": [
        {
          "internalType": "address",
          "name": "account",
          "type": "address"
        },
        {
          "internalType": "uint256",
          "name": "currentNonce",
          "type": "uint256"
        }
      ],
      "name": "InvalidAccountNonce",
      "type": "error"
    },
    {
      "inputs": [],
      "name": "InvalidInitialization",
      "type": "error"
    },
    {
      "inputs": [],
      "name": "NotInitializing",
      "type": "error"
    },
    {
      "inputs": [
        {
          "internalType": "uint8",
          "name": "bits",
          "type": "uint8"
        },
        {
          "internalType": "uint256",
          "name": "value",
          "type": "uint256"
        }
      ],
      "name": "SafeCastOverflowedUintDowncast",
      "type": "error"
    },
    {
      "inputs": [],
      "name": "UUPSUnauthorizedCallContext",
      "type": "error"
    },
    {
      "inputs": [
        {
          "internalType": "bytes32",
          "name": "slot",
          "type": "bytes32"
        }
      ],
      "name": "UUPSUnsupportedProxiableUUID",
      "type": "error"
    },
    {
      "inputs": [
        {
          "internalType": "uint256",
          "name": "expiry",
          "type": "uint256"
        }
      ],
      "name": "VotesExpiredSignature",
      "type": "error"
    },
    {
      "anonymous": false,
      "inputs": [
        {
          "indexed": true,
          "internalType": "address",
          "name": "owner",
          "type": "address"
        },
        {
          "indexed": true,
          "internalType": "address",
          "name": "spender",
          "type": "address"
        },
        {
          "indexed": false,
          "internalType": "uint256",
          "name": "value",
          "type": "uint256"
        }
      ],
      "name": "Approval",
      "type": "event"
    },
    {
      "anonymous": false,
      "inputs": [
        {
          "indexed": true,
          "internalType": "address",
          "name": "delegator",
          "type": "address"
        },
        {
          "indexed": true,
          "internalType": "address",
          "name": "fromDelegate",
          "type": "address"
        },
        {
          "indexed": true,
          "internalType": "address",
          "name": "toDelegate",
          "type": "address"
        }
      ],
      "name": "DelegateChanged",
      "type": "event"
    },
    {
      "anonymous": false,
      "inputs": [
        {
          "indexed": true,
          "internalType": "address",
          "name": "delegate",
          "type": "address"
        },
        {
          "indexed": false,
          "internalType": "uint256",
          "name": "previousVotes",
          "type": "uint256"
        },
        {
          "indexed": false,
          "internalType": "uint256",
          "name": "newVotes",
          "type": "uint256"
        }
      ],
      "name": "DelegateVotesChanged",
      "type": "event"
    },
    {
      "anonymous": false,
      "inputs": [],
      "name": "EIP712DomainChanged",
      "type": "event"
    },
    {
      "anonymous": false,
      "inputs": [
        {
          "indexed": false,
          "internalType": "uint64",
          "name": "version",
          "type": "uint64"
        }
      ],
      "name": "Initialized",
      "type": "event"
    },
    {
      "anonymous": false,
      "inputs": [
        {
          "indexed": true,
          "internalType": "bytes32",
          "name": "role",
          "type": "bytes32"
        },
        {
          "indexed": true,
          "internalType": "bytes32",
          "name": "previousAdminRole",
          "type": "bytes32"
        },
        {
          "indexed": true,
          "internalType": "bytes32",
          "name": "newAdminRole",
          "type": "bytes32"
        }
      ],
      "name": "RoleAdminChanged",
      "type": "event"
    },
    {
      "anonymous": false,
      "inputs": [
        {
          "indexed": true,
          "internalType": "bytes32",
          "name": "role",
          "type": "bytes32"
        },
        {
          "indexed": true,
          "internalType": "address",
          "name": "account",
          "type": "address"
        },
        {
          "indexed": true,
          "internalType": "address",
          "name": "sender",
          "type": "address"
        }
      ],
      "name": "RoleGranted",
      "type": "event"
    },
    {
      "anonymous": false,
      "inputs": [
        {
          "indexed": true,
          "internalType": "bytes32",
          "name": "role",
          "type": "bytes32"
        },
        {
          "indexed": true,
          "internalType": "address",
          "name": "account",
          "type": "address"
        },
        {
          "indexed": true,
          "internalType": "address",
          "name": "sender",
          "type": "address"
        }
      ],
      "name": "RoleRevoked",
      "type": "event"
    },
    {
      "anonymous": false,
      "inputs": [
        {
          "indexed": true,
          "internalType": "address",
          "name": "from",
          "type": "address"
        },
        {
          "indexed": true,
          "internalType": "address",
          "name": "to",
          "type": "address"
        },
        {
          "indexed": false,
          "internalType": "uint256",
          "name": "value",
          "type": "uint256"
        }
      ],
      "name": "Transfer",
      "type": "event"
    },
    {
      "anonymous": false,
      "inputs": [
        {
          "indexed": true,
          "internalType": "address",
          "name": "implementation",
          "type": "address"
        }
      ],
      "name": "Upgraded",
      "type": "event"
    },
    {
      "inputs": [],
      "name": "CLOCK_MODE",
      "outputs": [
        {
          "internalType": "string",
          "name": "",
          "type": "string"
        }
      ],
      "stateMutability": "pure",
      "type": "function"
    },
    {
      "inputs": [],
      "name": "DEFAULT_ADMIN_ROLE",
      "outputs": [
        {
          "internalType": "bytes32",
          "name": "",
          "type": "bytes32"
        }
      ],
      "stateMutability": "view",
      "type": "function"
    },
    {
      "inputs": [],
      "name": "DOMAIN_SEPARATOR",
      "outputs": [
        {
          "internalType": "bytes32",
          "name": "",
          "type": "bytes32"
        }
      ],
      "stateMutability": "view",
      "type": "function"
    },
    {
      "inputs": [],
      "name": "UPGRADER_ROLE",
      "outputs": [
        {
          "internalType": "bytes32",
          "name": "",
          "type": "bytes32"
        }
      ],
      "stateMutability": "view",
      "type": "function"
    },
    {
      "inputs": [],
      "name": "UPGRADE_INTERFACE_VERSION",
      "outputs": [
        {
          "internalType": "string",
          "name": "",
          "type": "string"
        }
      ],
      "stateMutability": "view",
      "type": "function"
    },
    {
      "inputs": [
        {
          "internalType": "address",
          "name": "owner",
          "type": "address"
        },
        {
          "internalType": "address",
          "name": "spender",
          "type": "address"
        }
      ],
      "name": "allowance",
      "outputs": [
        {
          "internalType": "uint256",
          "name": "",
          "type": "uint256"
        }
      ],
      "stateMutability": "view",
      "type": "function"
    },
    {
      "inputs": [
        {
          "internalType": "address",
          "name": "spender",
          "type": "address"
        },
        {
          "internalType": "uint256",
          "name": "value",
          "type": "uint256"
        }
      ],
      "name": "approve",
      "outputs": [
        {
          "internalType": "bool",
          "name": "",
          "type": "bool"
        }
      ],
      "stateMutability": "nonpayable",
      "type": "function"
    },
    {
      "inputs": [
        {
          "internalType": "address",
          "name": "account",
          "type": "address"
        }
      ],
      "name": "balanceOf",
      "outputs": [
        {
          "internalType": "uint256",
          "name": "",
          "type": "uint256"
        }
      ],
      "stateMutability": "view",
      "type": "function"
    },
    {
      "inputs": [
        {
          "internalType": "address",
          "name": "account",
          "type": "address"
        },
        {
          "internalType": "uint32",
          "name": "pos",
          "type": "uint32"
        }
      ],
      "name": "checkpoints",
      "outputs": [
        {
          "components": [
            {
              "internalType": "uint48",
              "name": "_key",
              "type": "uint48"
            },
            {
              "internalType": "uint208",
              "name": "_value",
              "type": "uint208"
            }
          ],
          "internalType": "struct Checkpoints.Checkpoint208",
          "name": "",
          "type": "tuple"
        }
      ],
      "stateMutability": "view",
      "type": "function"
    },
    {
      "inputs": [],
      "name": "clock",
      "outputs": [
        {
          "internalType": "uint48",
          "name": "",
          "type": "uint48"
        }
      ],
      "stateMutability": "view",
      "type": "function"
    },
    {
      "inputs": [],
      "name": "decimals",
      "outputs": [
        {
          "internalType": "uint8",
          "name": "",
          "type": "uint8"
        }
      ],
      "stateMutability": "view",
      "type": "function"
    },
    {
      "inputs": [
        {
          "internalType": "address",
          "name": "delegatee",
          "type": "address"
        }
      ],
      "name": "delegate",
      "outputs": [],
      "stateMutability": "nonpayable",
      "type": "function"
    },
    {
      "inputs": [
        {
          "internalType": "address",
          "name": "delegatee",
          "type": "address"
        },
        {
          "internalType": "uint256",
          "name": "nonce",
          "type": "uint256"
        },
        {
          "internalType": "uint256",
          "name": "expiry",
          "type": "uint256"
        },
        {
          "internalType": "uint8",
          "name": "v",
          "type": "uint8"
        },
        {
          "internalType": "bytes32",
          "name": "r",
          "type": "bytes32"
        },
        {
          "internalType": "bytes32",
          "name": "s",
          "type": "bytes32"
        }
      ],
      "name": "delegateBySig",
      "outputs": [],
      "stateMutability": "nonpayable",
      "type": "function"
    },
    {
      "inputs": [
        {
          "internalType": "address",
          "name": "account",
          "type": "address"
        }
      ],
      "name": "delegates",
      "outputs": [
        {
          "internalType": "address",
          "name": "",
          "type": "address"
        }
      ],
      "stateMutability": "view",
      "type": "function"
    },
    {
      "inputs": [],
      "name": "eip712Domain",
      "outputs": [
        {
          "internalType": "bytes1",
          "name": "fields",
          "type": "bytes1"
        },
        {
          "internalType": "string",
          "name": "name",
          "type": "string"
        },
        {
          "internalType": "string",
          "name": "version",
          "type": "string"
        },
        {
          "internalType": "uint256",
          "name": "chainId",
          "type": "uint256"
        },
        {
          "internalType": "address",
          "name": "verifyingContract",
          "type": "address"
        },
        {
          "internalType": "bytes32",
          "name": "salt",
          "type": "bytes32"
        },
        {
          "internalType": "uint256[]",
          "name": "extensions",
          "type": "uint256[]"
        }
      ],
      "stateMutability": "view",
      "type": "function"
    },
    {
      "inputs": [
        {
          "internalType": "uint256",
          "name": "timepoint",
          "type": "uint256"
        }
      ],
      "name": "getPastTotalSupply",
      "outputs": [
        {
          "internalType": "uint256",
          "name": "",
          "type": "uint256"
        }
      ],
      "stateMutability": "view",
      "type": "function"
    },
    {
      "inputs": [
        {
          "internalType": "address",
          "name": "account",
          "type": "address"
        },
        {
          "internalType": "uint256",
          "name": "timepoint",
          "type": "uint256"
        }
      ],
      "name": "getPastVotes",
      "outputs": [
        {
          "internalType": "uint256",
          "name": "",
          "type": "uint256"
        }
      ],
      "stateMutability": "view",
      "type": "function"
    },
    {
      "inputs": [
        {
          "internalType": "bytes32",
          "name": "role",
          "type": "bytes32"
        }
      ],
      "name": "getRoleAdmin",
      "outputs": [
        {
          "internalType": "bytes32",
          "name": "",
          "type": "bytes32"
        }
      ],
      "stateMutability": "view",
      "type": "function"
    },
    {
      "inputs": [
        {
          "internalType": "address",
          "name": "account",
          "type": "address"
        }
      ],
      "name": "getVotes",
      "outputs": [
        {
          "internalType": "uint256",
          "name": "",
          "type": "uint256"
        }
      ],
      "stateMutability": "view",
      "type": "function"
    },
    {
      "inputs": [
        {
          "internalType": "bytes32",
          "name": "role",
          "type": "bytes32"
        },
        {
          "internalType": "address",
          "name": "account",
          "type": "address"
        }
      ],
      "name": "grantRole",
      "outputs": [],
      "stateMutability": "nonpayable",
      "type": "function"
    },
    {
      "inputs": [
        {
          "internalType": "bytes32",
          "name": "role",
          "type": "bytes32"
        },
        {
          "internalType": "address",
          "name": "account",
          "type": "address"
        }
      ],
      "name": "hasRole",
      "outputs": [
        {
          "internalType": "bool",
          "name": "",
          "type": "bool"
        }
      ],
      "stateMutability": "view",
      "type": "function"
    },
    {
      "inputs": [
        {
          "internalType": "string",
          "name": "name",
          "type": "string"
        },
        {
          "internalType": "string",
          "name": "symbol",
          "type": "string"
        },
        {
          "internalType": "uint256",
          "name": "intialSupply",
          "type": "uint256"
        }
      ],
      "name": "initialize",
      "outputs": [],
      "stateMutability": "nonpayable",
      "type": "function"
    },
    {
      "inputs": [],
      "name": "name",
      "outputs": [
        {
          "internalType": "string",
          "name": "",
          "type": "string"
        }
      ],
      "stateMutability": "view",
      "type": "function"
    },
    {
      "inputs": [
        {
          "internalType": "address",
          "name": "owner",
          "type": "address"
        }
      ],
      "name": "nonces",
      "outputs": [
        {
          "internalType": "uint256",
          "name": "",
          "type": "uint256"
        }
      ],
      "stateMutability": "view",
      "type": "function"
    },
    {
      "inputs": [
        {
          "internalType": "address",
          "name": "account",
          "type": "address"
        }
      ],
      "name": "numCheckpoints",
      "outputs": [
        {
          "internalType": "uint32",
          "name": "",
          "type": "uint32"
        }
      ],
      "stateMutability": "view",
      "type": "function"
    },
    {
      "inputs": [
        {
          "internalType": "address",
          "name": "owner",
          "type": "address"
        },
        {
          "internalType": "address",
          "name": "spender",
          "type": "address"
        },
        {
          "internalType": "uint256",
          "name": "value",
          "type": "uint256"
        },
        {
          "internalType": "uint256",
          "name": "deadline",
          "type": "uint256"
        },
        {
          "internalType": "uint8",
          "name": "v",
          "type": "uint8"
        },
        {
          "internalType": "bytes32",
          "name": "r",
          "type": "bytes32"
        },
        {
          "internalType": "bytes32",
          "name": "s",
          "type": "bytes32"
        }
      ],
      "name": "permit",
      "outputs": [],
      "stateMutability": "nonpayable",
      "type": "function"
    },
    {
      "inputs": [],
      "name": "proxiableUUID",
      "outputs": [
        {
          "internalType": "bytes32",
          "name": "",
          "type": "bytes32"
        }
      ],
      "stateMutability": "view",
      "type": "function"
    },
    {
      "inputs": [
        {
          "internalType": "bytes32",
          "name": "role",
          "type": "bytes32"
        },
        {
          "internalType": "address",
          "name": "callerConfirmation",
          "type": "address"
        }
      ],
      "name": "renounceRole",
      "outputs": [],
      "stateMutability": "nonpayable",
      "type": "function"
    },
    {
      "inputs": [
        {
          "internalType": "bytes32",
          "name": "role",
          "type": "bytes32"
        },
        {
          "internalType": "address",
          "name": "account",
          "type": "address"
        }
      ],
      "name": "revokeRole",
      "outputs": [],
      "stateMutability": "nonpayable",
      "type": "function"
    },
    {
      "inputs": [
        {
          "internalType": "bytes4",
          "name": "interfaceId",
          "type": "bytes4"
        }
      ],
      "name": "supportsInterface",
      "outputs": [
        {
          "internalType": "bool",
          "name": "",
          "type": "bool"
        }
      ],
      "stateMutability": "view",
      "type": "function"
    },
    {
      "inputs": [],
      "name": "symbol",
      "outputs": [
        {
          "internalType": "string",
          "name": "",
          "type": "string"
        }
      ],
      "stateMutability": "view",
      "type": "function"
    },
    {
      "inputs": [],
      "name": "totalSupply",
      "outputs": [
        {
          "internalType": "uint256",
          "name": "",
          "type": "uint256"
        }
      ],
      "stateMutability": "view",
      "type": "function"
    },
    {
      "inputs": [
        {
          "internalType": "address",
          "name": "to",
          "type": "address"
        },
        {
          "internalType": "uint256",
          "name": "value",
          "type": "uint256"
        }
      ],
      "name": "transfer",
      "outputs": [
        {
          "internalType": "bool",
          "name": "",
          "type": "bool"
        }
      ],
      "stateMutability": "nonpayable",
      "type": "function"
    },
    {
      "inputs": [
        {
          "internalType": "address",
          "name": "from",
          "type": "address"
        },
        {
          "internalType": "address",
          "name": "to",
          "type": "address"
        },
        {
          "internalType": "uint256",
          "name": "value",
          "type": "uint256"
        }
      ],
      "name": "transferFrom",
      "outputs": [
        {
          "internalType": "bool",
          "name": "",
          "type": "bool"
        }
      ],
      "stateMutability": "nonpayable",
      "type": "function"
    },
    {
      "inputs": [
        {
          "internalType": "address",
          "name": "newImplementation",
          "type": "address"
        },
        {
          "internalType": "bytes",
          "name": "data",
          "type": "bytes"
        }
      ],
      "name": "upgradeToAndCall",
      "outputs": [],
      "stateMutability": "payable",
      "type": "function"
    }
  ],
  "bytecode": {
    "object": "0x60a080604052346100cd57306080527ff0c57e16840df040f15088dc2f81fe391c3923bec73e23a9662efc9c229c6a009081549060ff8260401c166100be57506001600160401b036002600160401b031982821601610079575b6040516134659081620000d382396080518181816109200152610a4d0152f35b6001600160401b031990911681179091556040519081527fc7f505b2f371ae2175ee4913f4499e1f2633a7b5936321eed1cdaeb6115181d290602090a1388080610059565b63f92ee8a960e01b8152600490fd5b600080fdfe6080604052600436101561001257600080fd5b60003560e01c806301ffc9a71461024757806306fdde0314610242578063095ea7b31461023d57806318160ddd1461023857806323b872dd14610233578063248a9ca31461022e5780632f2ff15d14610229578063313ce567146102245780633644e5151461021f57806336568abe1461021a5780633a46b1a8146102155780634bf5d7e9146102105780634f1ef2861461020b57806352d1902d14610206578063587cde1e146102015780635c19a95c146101fc5780636fcfff45146101f757806370a08231146101f25780637ecebe00146101ed57806384b0196e146101e85780638e539e8c146101e357806391d14854146101de57806391ddadf4146101d957806395d89b41146101d45780639ab24eb0146101cf578063a217fddf146101ca578063a9059cbb146101c5578063ad3cb1cc146101c0578063b119490e146101bb578063c3cda520146101b6578063d505accf146101b1578063d547741f146101ac578063dd62ed3e146101a7578063f1127ed8146101a25763f72c0d8b1461019d57600080fd5b611546565b6114bf565b611487565b61143b565b6112e8565b61121f565b6110a4565b611031565b61100b565b610fef565b610fb8565b610f02565b610edf565b610e80565b610d5f565b610c8e565b610baf565b610b57565b610afd565b610adb565b610a93565b610a3a565b6108d0565b6107ae565b61068e565b610647565b610624565b610608565b6105ba565b61057e565b610487565b61044a565b610419565b6102f6565b3461029d57602036600319011261029d5760043563ffffffff60e01b811680910361029d57602090637965db0b60e01b811490811561028c575b506040519015158152f35b6301ffc9a760e01b14905038610281565b600080fd5b919082519283825260005b8481106102ce575050826000602080949584010152601f8019910116010190565b6020818301810151848301820152016102ad565b9060206102f39281815201906102a2565b90565b3461029d576000806003193601126103ea5760405190806000805160206133108339815191529081549061032982611bd2565b808652926001928084169081156103bd5750600114610363575b61035f866103538188038261084e565b604051918291826102e2565b0390f35b815292507f2ae08a8e29253f69ac5d979a101956ab8f8d9d7ded63fa7a83b16fc47648eab05b8284106103a55750505081016020016103538261035f38610343565b80546020858701810191909152909301928101610389565b905086955061035f9693506020925061035394915060ff191682840152151560051b820101929338610343565b80fd5b600435906001600160a01b038216820361029d57565b602435906001600160a01b038216820361029d57565b3461029d57604036600319011261029d5761043f6104356103ed565b6024359033611e61565b602060405160018152f35b3461029d57600036600319011261029d5760207f52c63247e1f47db19d5ce0460030c497f067ca4cebf71ba98eeadabe20bace0254604051908152f35b3461029d57606036600319011261029d576104a06103ed565b6104a8610403565b604435906104d0336104b985611581565b9060018060a01b0316600052602052604060002090565b5492600184016104f1575b6104e59350611d7f565b60405160018152602090f35b828410610558576001600160a01b0381161561053f57331561052657826104e59403610520336104b984611581565b556104db565b604051634a1406b160e11b815260006004820152602490fd5b60405163e602df0560e01b815260006004820152602490fd5b604051637dc7a0d960e11b81523360048201526024810185905260448101849052606490fd5b3461029d57602036600319011261029d576004356000526000805160206133d08339815191526020526020600160406000200154604051908152f35b3461029d57604036600319011261029d576106066004356105d9610403565b90806000526000805160206133d08339815191526020526106016001604060002001546116a8565b611865565b005b3461029d57600036600319011261029d57602060405160128152f35b3461029d57600036600319011261029d57602061063f611f47565b604051908152f35b3461029d57604036600319011261029d57610660610403565b336001600160a01b0382160361067c576106069060043561189f565b60405163334bd91960e11b8152600490fd5b3461029d57604036600319011261029d576106a76103ed565b6024359065ffffffffffff908142168084101561078557506106cb6106d1916115ba565b9261238d565b8254906000908260058111610736575b506106ed935084612985565b60009190806107195750505061035f60005b6040516001600160d01b0390911681529081906020820190565b61035f926107286020926123bf565b92815220015460301c6106ff565b9092610741826123fc565b8203918211610780576106ed948684528083602086200154169085161060001461076e5750915b386106e1565b92915061077a906123ce565b90610768565b611bad565b604051637669fc0f60e11b81526004810185905265ffffffffffff919091166024820152604490fd5b3461029d57600036600319011261029d5761035f6040516107ce81610813565b600e81526d06d6f64653d74696d657374616d760941b60208201526040519182916020835260208301906102a2565b634e487b7160e01b600052604160045260246000fd5b604081019081106001600160401b0382111761082e57604052565b6107fd565b60a081019081106001600160401b0382111761082e57604052565b90601f801991011681019081106001600160401b0382111761082e57604052565b6040519061087c82610813565b565b6001600160401b03811161082e57601f01601f191660200190565b9291926108a58261087e565b916108b3604051938461084e565b82948184528183011161029d578281602093846000960137010152565b604036600319011261029d576108e46103ed565b6024356001600160401b03811161029d573660238201121561029d57610914903690602481600401359101610899565b6001600160a01b0391907f00000000000000000000000000000000000000000000000000000000000000008316308114908115610a1e575b50610a0c57602060049361095e61162c565b6040516352d1902d60e01b8152948591829086165afa600093816109dc575b506109a357604051634c9c8ce360e01b81526001600160a01b0383166004820152602490fd5b9060008051602061339083398151915283036109c35761060692506120b9565b604051632a87526960e21b815260048101849052602490fd5b6109fe91945060203d8111610a05575b6109f6818361084e565b810190611bc3565b923861097d565b503d6109ec565b60405163703e46dd60e11b8152600490fd5b905083600080516020613390833981519152541614153861094c565b3461029d57600036600319011261029d577f00000000000000000000000000000000000000000000000000000000000000006001600160a01b03163003610a0c5760206040516000805160206133908339815191528152f35b3461029d57602036600319011261029d5760206001600160a01b0380610ab76103ed565b166000526000805160206132f0833981519152825260406000205416604051908152f35b3461029d57602036600319011261029d57610606610af76103ed565b33611937565b3461029d57602036600319011261029d57610b1e610b196103ed565b6115ba565b5463ffffffff90818111610b385760209160405191168152f35b604490604051906306dfcc6560e41b8252602060048301526024820152fd5b3461029d57602036600319011261029d57602061063f610b756103ed565b6001600160a01b031660009081527f52c63247e1f47db19d5ce0460030c497f067ca4cebf71ba98eeadabe20bace00602052604090205490565b3461029d57602036600319011261029d576001600160a01b03610bd06103ed565b166000527f5ab42ced628888259c08ac98db1eb0cf702fc1501344311d8b100cd1bfe4bb006020526020604060002054604051908152f35b91610c3b90949194600f60f81b8452610c2d60209660e08887015260e08601906102a2565b9084820360408601526102a2565b92606083015260018060a01b03166080820152600060a082015260c081830391015281808451928381520193019160005b828110610c7a575050505090565b835185529381019392810192600101610c6c565b3461029d57600036600319011261029d577fa16a46d94261c7517cc8ff89f61c0ce93598e3c849801011dee649a6a557d100541580610d36575b15610cf957610cd5611c0c565b610cdd611cd8565b9061035f610ce9611fe2565b6040519384933091469186610c08565b60405162461bcd60e51b81526020600482015260156024820152741152540dcc4c8e88155b9a5b9a5d1a585b1a5e9959605a1b6044820152606490fd5b507fa16a46d94261c7517cc8ff89f61c0ce93598e3c849801011dee649a6a557d1015415610cc8565b3461029d57602036600319011261029d5765ffffffffffff60043542821680821015610e595750610d8f9061238d565b906000805160206133b0833981519152918254906000908260058111610e04575b50610dbb935061290f565b9060009082610dde57505050602060005b6040516001600160d01b039091168152f35b610de96020936123bf565b9152600080516020613410833981519152015460301c610dcc565b9092610e0f826123fc565b820391821161078057610dbb94868452808360008051602061341083398151915201541690851610600014610e475750915b38610db0565b929150610e53906123ce565b90610e41565b604051637669fc0f60e11b8152600481019290925265ffffffffffff166024820152604490fd5b3461029d57604036600319011261029d57602060ff610ed3610ea0610403565b6004356000526000805160206133d0833981519152845260406000209060018060a01b0316600052602052604060002090565b54166040519015158152f35b3461029d57600036600319011261029d57602060405165ffffffffffff42168152f35b3461029d576000806003193601126103ea57604051908060008051602061335083398151915290815490610f3582611bd2565b808652926001928084169081156103bd5750600114610f5e5761035f866103538188038261084e565b815292507f46a2803e59a4de4e7a4c574b1243f25977ac4c77d5a1a4a609b5394cebb4a2aa5b828410610fa05750505081016020016103538261035f38610343565b80546020858701810191909152909301928101610f84565b3461029d57602036600319011261029d5760206001600160d01b03610fe6610fe1610b196103ed565b6125a5565b16604051908152f35b3461029d57600036600319011261029d57602060405160008152f35b3461029d57604036600319011261029d5761043f6110276103ed565b6024359033611d7f565b3461029d57600036600319011261029d5761035f60405161105181610813565b60058152640352e302e360dc1b60208201526040519182916020835260208301906102a2565b9181601f8401121561029d578235916001600160401b03831161029d576020838186019501011161029d57565b3461029d57606036600319011261029d576001600160401b0360043581811161029d576110d5903690600401611077565b9060243583811161029d576110ee903690600401611077565b906000805160206133f0833981519152549460ff8660401c16159516801590816111f7575b60011490816111ed575b1590816111e4575b506111d2576000805160206133f0833981519152805467ffffffffffffffff1916600117905561115e93856111ad575b604435936129e6565b61116457005b6000805160206133f0833981519152805460ff60401b19169055604051600181527fc7f505b2f371ae2175ee4913f4499e1f2633a7b5936321eed1cdaeb6115181d290602090a1005b6000805160206133f0833981519152805460ff60401b1916600160401b179055611155565b60405163f92ee8a960e01b8152600490fd5b90501538611125565b303b15915061111d565b869150611113565b6064359060ff8216820361029d57565b6084359060ff8216820361029d57565b3461029d5760c036600319011261029d576112386103ed565b604435906024356112476111ff565b8342116112cf576112c3610606946112ca926040519060208201927fe48329057bfd03d55e49b547132e39cffd9c1820ad7b9d4c5307691425d15adf845260018060a01b03881660408401528660608401526080830152608082526112ab82610833565b6112be60a4359360843593519020611fbc565b612205565b9182611ed2565b611937565b604051632341d78760e11b815260048101859052602490fd5b3461029d5760e036600319011261029d576113016103ed565b611309610403565b6044359060643561131861120f565b814211611422576001600160a01b0385811660008181527f5ab42ced628888259c08ac98db1eb0cf702fc1501344311d8b100cd1bfe4bb00602090815260409182902080546001810190915582517f6e71edae12b1b97f4d1f60370fef10105fa2faae0126114a169c64845d6126c99281019283529283019390935292861660608201526080810187905260a081019190915260c0808201949094529283526113db9290916113c860e08361084e565b6112be60c4359360a43593519020611fbc565b6001600160a01b03848116908216036113f8575061060692611e61565b6040516325c0072360e11b81526001600160a01b0391821660048201529084166024820152604490fd5b60405163313c898160e11b815260048101839052602490fd5b3461029d57604036600319011261029d5761060660043561145a610403565b90806000526000805160206133d08339815191526020526114826001604060002001546116a8565b61189f565b3461029d57604036600319011261029d5760206114b66114a56103ed565b6104b96114b0610403565b91611581565b54604051908152f35b3461029d57604036600319011261029d576114d86103ed565b60243563ffffffff8116810361029d5761151a6115209161150c6040946114fd611eb9565b50611506611eb9565b506115ba565b611514611eb9565b506125d3565b50612601565b8151815165ffffffffffff1681526020918201516001600160d01b031691810191909152f35b3461029d57600036600319011261029d5760206040517f189ab7a9244df0848122154315af71fe140f3db0fe014031783b0946b8c9d2e38152f35b6001600160a01b031660009081527f52c63247e1f47db19d5ce0460030c497f067ca4cebf71ba98eeadabe20bace016020526040902090565b6001600160a01b031660009081527fe8b26c30fad74198956032a3533d903385d56dd795af560196f9c78d4af40d016020526040902090565b6001600160a01b031660009081527f52c63247e1f47db19d5ce0460030c497f067ca4cebf71ba98eeadabe20bace006020526040902090565b3360009081527fab71e3f32666744d246edff3f96e4bdafee2e9867098cdd118a979a7464786a8602052604090207f189ab7a9244df0848122154315af71fe140f3db0fe014031783b0946b8c9d2e39060ff905b54161561168a5750565b6044906040519063e2517d3f60e01b82523360048301526024820152fd5b60008181526000805160206133d083398151915260209081526040808320338452909152902060ff90611680565b6001600160a01b03811660009081527fb7db2dd08fcb62d0c9e08c51941cae53c267786a0b75803fb7960902fc8ef97d60205260408120546000805160206133d08339815191529060ff1661178557818052602090815260408083206001600160a01b038516600090815292529020805460ff1916600117905533916001600160a01b0316907f2f8788117e7eff1d82e926ec794901d17c78024a50270940304540a733656f0d8180a4600190565b50905090565b6001600160a01b03811660009081527fab71e3f32666744d246edff3f96e4bdafee2e9867098cdd118a979a7464786a8602052604081207f189ab7a9244df0848122154315af71fe140f3db0fe014031783b0946b8c9d2e3906000805160206133d08339815191529060ff905b541661185e57818352602090815260408084206001600160a01b038616600090815292529020805460ff1916600117905533926001600160a01b0316917f2f8788117e7eff1d82e926ec794901d17c78024a50270940304540a733656f0d9080a4600190565b5050905090565b60008181526000805160206133d0833981519152602081815260408084206001600160a01b0387168552909152822091929160ff906117f8565b60008181526000805160206133d0833981519152602081815260408084206001600160a01b038716855290915282205491929160ff161561185e57818352602090815260408084206001600160a01b038616600090815292529020805460ff1916905533926001600160a01b0316917ff6391f5c32d9c69d2a47ea670b442974b53935d1edc7fd64eb21e047a839171b9080a4600190565b6001600160a01b0381811660008181526000805160206132f08339815191526020526040812080548685166001600160a01b03198216811790925561087c969416946119e09390928691907f3134e8a2e6d97e929a7e54011ea5485d7d196dd5f0ba4d4ef95803e8e3fc257f9080a46001600160a01b031660009081527f52c63247e1f47db19d5ce0460030c497f067ca4cebf71ba98eeadabe20bace00602052604090205490565b915b6001600160a01b03808316939291908116908185141580611b0c575b611a0a575b5050505050565b81611a7f575b505082611a1f575b8080611a03565b7fdec2bacdd2f05b59de34da9b523dff8be42e5e38e818c82fdb0bae774387a72491611a56611a50611a5c936115ba565b9161235a565b90611b15565b604080516001600160d01b039384168152919092166020820152a2388080611a18565b611a88906115ba565b611a918461235a565b6001600160d01b03908180611aa5856125a5565b169116900381811161078057611ae9611b02917fdec2bacdd2f05b59de34da9b523dff8be42e5e38e818c82fdb0bae774387a7249465ffffffffffff42169061282d565b6040805192851683529316602082015291829190820190565b0390a23880611a10565b508315156119fe565b906001600160d01b03908180611b2a856125a5565b1691160190811161078057611b489165ffffffffffff42169061282d565b9091565b6001600160d01b03908180611b5f61254e565b1691160190811161078057611b489065ffffffffffff42166126eb565b6001600160d01b03908180611b8f61254e565b1691169003908111611bad57611b489065ffffffffffff42166126eb565b634e487b7160e01b600052601160045260246000fd5b9081602091031261029d575190565b90600182811c92168015611c02575b6020831014611bec57565b634e487b7160e01b600052602260045260246000fd5b91607f1691611be1565b60405190600082600080516020613330833981519152918254611c2e81611bd2565b80845293600191808316908115611cb45750600114611c56575b505061087c9250038361084e565b600090815291507f42ad5d3e1f2e6e70edcf6d991b8a3023d3fca8047a131592f9edb9fd9b89d57d5b848310611c99575061087c93505081016020013880611c48565b81935090816020925483858a01015201910190918592611c7f565b9150506020925061087c94915060ff191682840152151560051b8201013880611c48565b60405190600082600080516020613370833981519152918254611cfa81611bd2565b80845293600191808316908115611cb45750600114611d2157505061087c9250038361084e565b600090815291507f5f9ce34815f8e11431c7bb75a8e6886a91478f7ffc1dbb0a98dc240fddd76b755b848310611d64575061087c93505081016020013880611c48565b81935090816020925483858a01015201910190918592611d4a565b6001600160a01b0380821694939291908515611e485782168015611e2f57611da6826115f3565b5495848710611e00578461087c969703611dbf846115f3565b55611dc9846115f3565b8054860190556040518581527fddf252ad1be2c89b69c2b068fc378daa952ba7f163c4a11628f55a4df523b3ef90602090a3613277565b60405163391434e360e21b81526001600160a01b03841660048201526024810188905260448101869052606490fd5b60405163ec442f0560e01b815260006004820152602490fd5b604051634b637e8f60e11b815260006004820152602490fd5b6001600160a01b03808216929190831561053f5782169384156105265780611eaf7f8c5be1e5ebec7d5bd14f71427d1e84f3dd0314c0f7b2291e5b200ac8c7c3b925946104b9602095611581565b55604051908152a3565b60405190611ec682610813565b60006020838281520152565b6001600160a01b03811660009081527f5ab42ced628888259c08ac98db1eb0cf702fc1501344311d8b100cd1bfe4bb00602052604090208054600181019091559091819003611f1f575050565b6040516301d4b62360e61b81526001600160a01b039092166004830152602482015260449150fd5b611f4f61200a565b611f57612074565b6040519060208201927f8b73c3c69bb8fe3d512ecc4cf759cc79239f7b179b0ffacaa9a75d522b39400f8452604083015260608201524660808201523060a082015260a0815260c081018181106001600160401b0382111761082e5760405251902090565b604290611fc7611f47565b906040519161190160f01b8352600283015260228201522090565b604051602081018181106001600160401b0382111761082e5760405260008152906000368137565b612012611c0c565b8051908115612022576020012090565b50507fa16a46d94261c7517cc8ff89f61c0ce93598e3c849801011dee649a6a557d10054801561204f5790565b507fc5d2460186f7233c927e7db2dcc703c0e500b653ca82273b7bfad8045d85a47090565b61207c611cd8565b805190811561208c576020012090565b50507fa16a46d94261c7517cc8ff89f61c0ce93598e3c849801011dee649a6a557d10154801561204f5790565b90813b1561213f5760008051602061339083398151915280546001600160a01b0319166001600160a01b0384169081179091557fbc7cd75a20ee27fd9adebab32041f755214dbc6bffa90cc0225b39da2e5c2d3b600080a28051156121245761212191612160565b50565b50503461212d57565b60405163b398979f60e01b8152600490fd5b604051634c9c8ce360e01b81526001600160a01b0383166004820152602490fd5b6000806102f393602081519101845af43d1561219e573d916121818361087e565b9261218f604051948561084e565b83523d6000602085013e6121a2565b6060915b906121c957508051156121b757805190602001fd5b604051630a12f52160e11b8152600490fd5b815115806121fc575b6121da575090565b604051639996b31560e01b81526001600160a01b039091166004820152602490fd5b50803b156121d2565b916102f393916122149361221d565b909291926122cd565b91907f7fffffffffffffffffffffffffffffff5d576e7357a4501ddfe92f46681b20a084116122a157926020929160ff608095604051948552168484015260408301526060820152600092839182805260015afa156122955780516001600160a01b0381161561228c57918190565b50809160019190565b604051903d90823e3d90fd5b50505060009160039190565b600411156122b757565b634e487b7160e01b600052602160045260246000fd5b6122d6816122ad565b806122df575050565b6122e8816122ad565b600181036123025760405163f645eedf60e01b8152600490fd5b61230b816122ad565b6002810361232c5760405163fce698f760e01b815260048101839052602490fd5b806123386003926122ad565b146123405750565b6040516335e2f38360e21b81526004810191909152602490fd5b6001600160d01b039081811161236e571690565b604490604051906306dfcc6560e41b825260d060048301526024820152fd5b65ffffffffffff908181116123a0571690565b604490604051906306dfcc6560e41b8252603060048301526024820152fd5b60001981019190821161078057565b906001820180921161078057565b81156123e6570490565b634e487b7160e01b600052601260045260246000fd5b801561253657806124cf6124c86124be6124b46124aa6124a061249661248c60016102f39a6000908b60801c8061252a575b508060401c8061251d575b508060201c80612510575b508060101c80612503575b508060081c806124f6575b508060041c806124e9575b508060021c806124dc575b50821c6124d5575b811c1b612485818b6123dc565b0160011c90565b612485818a6123dc565b61248581896123dc565b61248581886123dc565b61248581876123dc565b61248581866123dc565b61248581856123dc565b80926123dc565b9061253c565b8101612478565b6002915091019038612470565b6004915091019038612465565b600891509101903861245a565b601091509101903861244f565b6020915091019038612444565b6040915091019038612439565b9150506080903861242e565b50600090565b9080821015612549575090565b905090565b6000805160206133b083398151915280546000918161256f57505050600090565b81600019810111610780577f88c46c62109817164d0ae1873830d4299a82e5daf552a3d8e989b27638fcf7479252015460301c90565b8054600091816125b757505050600090565b6000199282848101116107805760209181522001015460301c90565b80548210156125eb5760005260206000200190600090565b634e487b7160e01b600052603260045260246000fd5b9060405161260e81610813565b915465ffffffffffff8116835260301c6020830152565b6000805160206133b0833981519152908154600160401b81101561082e57600181018084558110156125eb57600092909252805160209091015160301b65ffffffffffff191665ffffffffffff91909116176000805160206134108339815191529190910155565b8054600160401b81101561082e576126aa916001820181556125d3565b6126d557815160209092015160301b65ffffffffffff191665ffffffffffff92909216919091179055565b634e487b7160e01b600052600060045260246000fd5b6000805160206133b0833981519152549192919081156128035761273e612739612714846123bf565b6000805160206133b08339815191526000526000805160206134108339815191520190565b612601565b805165ffffffffffff83811694911684106127f157856020936127b59561277961276e865165ffffffffffff1690565b65ffffffffffff1690565b036127b9575061278e6127146127a7936123bf565b9065ffffffffffff82549181199060301b169116179055565b01516001600160d01b031690565b9190565b90506127ec91506127d96127cb61086f565b65ffffffffffff9092168252565b6001600160d01b03871681850152612625565b6127a7565b604051632520601d60e01b8152600490fd5b61282791506128136127cb61086f565b6001600160d01b0384166020820152612625565b60009190565b8054929392919082156128eb57612856612739612849856123bf565b8360005260206000200190565b90612867825165ffffffffffff1690565b65ffffffffffff848116911681106127f1576127b594602094889261289561276e875165ffffffffffff1690565b036128b857506127a7926128ab61278e926123bf565b9060005260206000200190565b9150506127ec916128d86128ca61086f565b65ffffffffffff9093168352565b6001600160d01b0388168286015261268d565b61282792506128fb6128ca61086f565b6001600160d01b038516602083015261268d565b905b82811061291d57505090565b90918082169080831860011c8201809211610780576000805160206133b083398151915260005265ffffffffffff8083600080516020613410833981519152015416908516106000146129735750915b90612911565b92915061297f906123ce565b9061296d565b91905b8382106129955750505090565b9091928083169080841860011c82018092116107805760008581526020902082015465ffffffffffff90811690841610156129d45750925b9190612988565b9392506129e0906123ce565b916129cd565b929091612a00906129f8368587610899565b923691610899565b90612a09612b78565b612a11612b78565b80516001600160401b03811161082e5760008051602061331083398151915291612a4482612a3f8554611bd2565b612ba7565b60209081601f8411600114612ad357509361087c97969383612a969794612a8a94612a9198600092612ac8575b50508160011b916000199060031b1c1916179055612d9f565b3691610899565b613064565b612a9e612b78565b612aa6612b78565b612aae612b78565b612ab7336116d6565b50612ac13361178b565b5033612f83565b015190503880612a71565b6000805160206133108339815191526000529190601f1984167f2ae08a8e29253f69ac5d979a101956ab8f8d9d7ded63fa7a83b16fc47648eab0936000905b828210612b6057505084612a8a94612a91989461087c9c9b9894612a969b9860019510612b47575b505050811b019055612d9f565b015160001960f88460031b161c19169055388080612b3a565b80600186978294978701518155019601940190612b12565b60ff6000805160206133f08339815191525460401c1615612b9557565b604051631afcd79f60e31b8152600490fd5b601f8111612bb3575050565b60009060008051602061331083398151915282527f2ae08a8e29253f69ac5d979a101956ab8f8d9d7ded63fa7a83b16fc47648eab0906020601f850160051c83019410612c1b575b601f0160051c01915b828110612c1057505050565b818155600101612c04565b9092508290612bfb565b601f8111612c31575050565b60009060008051602061333083398151915282527f42ad5d3e1f2e6e70edcf6d991b8a3023d3fca8047a131592f9edb9fd9b89d57d906020601f850160051c83019410612c99575b601f0160051c01915b828110612c8e57505050565b818155600101612c82565b9092508290612c79565b601f8111612caf575050565b60009060008051602061335083398151915282527f46a2803e59a4de4e7a4c574b1243f25977ac4c77d5a1a4a609b5394cebb4a2aa906020601f850160051c83019410612d17575b601f0160051c01915b828110612d0c57505050565b818155600101612d00565b9092508290612cf7565b601f8111612d2d575050565b60009060008051602061337083398151915282527f5f9ce34815f8e11431c7bb75a8e6886a91478f7ffc1dbb0a98dc240fddd76b75906020601f850160051c83019410612d95575b601f0160051c01915b828110612d8a57505050565b818155600101612d7e565b9092508290612d75565b9081516001600160401b03811161082e5760008051602061335083398151915290612dd381612dce8454611bd2565b612ca3565b602080601f8311600114612e0f575081929394600092612e04575b50508160011b916000199060031b1c1916179055565b015190503880612dee565b90601f19831695612e4f6000805160206133508339815191526000527f46a2803e59a4de4e7a4c574b1243f25977ac4c77d5a1a4a609b5394cebb4a2aa90565b926000905b888210612e8c57505083600195969710612e73575b505050811b019055565b015160001960f88460031b161c19169055388080612e69565b80600185968294968601518155019501930190612e54565b9081516001600160401b03811161082e5760008051602061337083398151915290612ed881612ed38454611bd2565b612d21565b602080601f8311600114612f08575081929394600092612e045750508160011b916000199060031b1c1916179055565b90601f19831695612f486000805160206133708339815191526000527f5f9ce34815f8e11431c7bb75a8e6886a91478f7ffc1dbb0a98dc240fddd76b7590565b926000905b888210612f6b57505083600195969710612e7357505050811b019055565b80600185968294968601518155019501930190612f4d565b91906001600160a01b0383168015611e2f577f52c63247e1f47db19d5ce0460030c497f067ca4cebf71ba98eeadabe20bace02908154838101809111610780577f52c63247e1f47db19d5ce0460030c497f067ca4cebf71ba98eeadabe20bace0255612fee856115f3565b8054840190556040518381526000907fddf252ad1be2c89b69c2b068fc378daa952ba7f163c4a11628f55a4df523b3ef90602090a354926001600160d01b03841161303e5761087c9293506131ec565b604051630e58ae9360e11b8152600481018590526001600160d01b036024820152604490fd5b9061306d612b78565b60405161307981610813565b600192838252602093603160f81b85840152613093612b78565b8151946001600160401b03861161082e57600080516020613330833981519152926130c7876130c28654611bd2565b612c25565b81601f8811600114613159575095809281926130fc979860009461314e575b50501b916000199060031b1c1916179055612ea4565b61312560007fa16a46d94261c7517cc8ff89f61c0ce93598e3c849801011dee649a6a557d10055565b61087c60007fa16a46d94261c7517cc8ff89f61c0ce93598e3c849801011dee649a6a557d10155565b0151925038806130e6565b600080516020613330833981519152600052601f198816979290917f42ad5d3e1f2e6e70edcf6d991b8a3023d3fca8047a131592f9edb9fd9b89d57d926000905b8a82106131d5575050836130fc9899106131bc575b505050811b019055612ea4565b015160001960f88460031b161c191690553880806131af565b80878596829496860151815501950193019061319a565b9061087c916132026131fd8361235a565b611b4c565b50506001600160a01b0390811690811561325f575b6000805160206132f08339815191526020527fd4fb29e10204005f1a39963c6862b79a755e22f0177c53f05cdc3786c702f974546000928352604090922054811691166119e2565b61327061326b8461235a565b611b7c565b5050613217565b61087c92916001600160a01b039182169190819083156132dc575b169182156132c9575b6000526000805160206132f083398151915260205280604060002054169160005260406000205416906119e2565b6132d561326b8561235a565b505061329b565b6132e86131fd8661235a565b505061329256fee8b26c30fad74198956032a3533d903385d56dd795af560196f9c78d4af40d0052c63247e1f47db19d5ce0460030c497f067ca4cebf71ba98eeadabe20bace03a16a46d94261c7517cc8ff89f61c0ce93598e3c849801011dee649a6a557d10252c63247e1f47db19d5ce0460030c497f067ca4cebf71ba98eeadabe20bace04a16a46d94261c7517cc8ff89f61c0ce93598e3c849801011dee649a6a557d103360894a13ba1a3210667c828492db98dca3e2076cc3735a920a3ca505d382bbce8b26c30fad74198956032a3533d903385d56dd795af560196f9c78d4af40d0202dd7bc7dec4dceedda775e58dd541e08a116c6c53815c0bd028192f7b626800f0c57e16840df040f15088dc2f81fe391c3923bec73e23a9662efc9c229c6a0088c46c62109817164d0ae1873830d4299a82e5daf552a3d8e989b27638fcf748a26469706673582212204cf545e030683c3e466e4b65f7dc9c0c12be148991284b86734415eb3b8bb6ea64736f6c63430008140033",
    "linkReferences": {}
  },
  "methodIdentifiers": {
    "CLOCK_MODE()": "4bf5d7e9",
    "DEFAULT_ADMIN_ROLE()": "a217fddf",
    "DOMAIN_SEPARATOR()": "3644e515",
    "UPGRADER_ROLE()": "f72c0d8b",
    "UPGRADE_INTERFACE_VERSION()": "ad3cb1cc",
    "allowance(address,address)": "dd62ed3e",
    "approve(address,uint256)": "095ea7b3",
    "balanceOf(address)": "70a08231",
    "checkpoints(address,uint32)": "f1127ed8",
    "clock()": "91ddadf4",
    "decimals()": "313ce567",
    "delegate(address)": "5c19a95c",
    "delegateBySig(address,uint256,uint256,uint8,bytes32,bytes32)": "c3cda520",
    "delegates(address)": "587cde1e",
    "eip712Domain()": "84b0196e",
    "getPastTotalSupply(uint256)": "8e539e8c",
    "getPastVotes(address,uint256)": "3a46b1a8",
    "getRoleAdmin(bytes32)": "248a9ca3",
    "getVotes(address)": "9ab24eb0",
    "grantRole(bytes32,address)": "2f2ff15d",
    "hasRole(bytes32,address)": "91d14854",
    "initialize(string,string,uint256)": "b119490e",
    "name()": "06fdde03",
    "nonces(address)": "7ecebe00",
    "numCheckpoints(address)": "6fcfff45",
    "permit(address,address,uint256,uint256,uint8,bytes32,bytes32)": "d505accf",
    "proxiableUUID()": "52d1902d",
    "renounceRole(bytes32,address)": "36568abe",
    "revokeRole(bytes32,address)": "d547741f",
    "supportsInterface(bytes4)": "01ffc9a7",
    "symbol()": "95d89b41",
    "totalSupply()": "18160ddd",
    "transfer(address,uint256)": "a9059cbb",
    "transferFrom(address,address,uint256)": "23b872dd",
    "upgradeToAndCall(address,bytes)": "4f1ef286"
  },
  "id": 95
}