{
  "address": "0x2a8491354b023da5378b3Fe1Da86F1cd2089412d",
  "abi": [
    {
      "inputs": [
        {
          "internalType": "contract IERC20",
          "name": "_seam",
          "type": "address"
        },
        {
          "internalType": "bytes32",
          "name": "_merkleRoot",
          "type": "bytes32"
        },
        {
          "internalType": "address",
          "name": "_owner",
          "type": "address"
        }
      ],
      "stateMutability": "nonpayable",
      "type": "constructor"
    },
    {
      "inputs": [
        {
          "internalType": "address",
          "name": "target",
          "type": "address"
        }
      ],
      "name": "AddressEmptyCode",
      "type": "error"
    },
    {
      "inputs": [
        {
          "internalType": "address",
          "name": "account",
          "type": "address"
        }
      ],
      "name": "AddressInsufficientBalance",
      "type": "error"
    },
    {
      "inputs": [
        {
          "internalType": "address",
          "name": "recipient",
          "type": "address"
        }
      ],
      "name": "AlreadyClaimed",
      "type": "error"
    },
    {
      "inputs": [],
      "name": "FailedInnerCall",
      "type": "error"
    },
    {
      "inputs": [],
      "name": "InvalidProof",
      "type": "error"
    },
    {
      "inputs": [
        {
          "internalType": "address",
          "name": "owner",
          "type": "address"
        }
      ],
      "name": "OwnableInvalidOwner",
      "type": "error"
    },
    {
      "inputs": [
        {
          "internalType": "address",
          "name": "account",
          "type": "address"
        }
      ],
      "name": "OwnableUnauthorizedAccount",
      "type": "error"
    },
    {
      "inputs": [
        {
          "internalType": "address",
          "name": "token",
          "type": "address"
        }
      ],
      "name": "SafeERC20FailedOperation",
      "type": "error"
    },
    {
      "anonymous": false,
      "inputs": [
        {
          "indexed": true,
          "internalType": "address",
          "name": "recipient",
          "type": "address"
        },
        {
          "indexed": false,
          "internalType": "uint256",
          "name": "amount",
          "type": "uint256"
        }
      ],
      "name": "Claim",
      "type": "event"
    },
    {
      "anonymous": false,
      "inputs": [
        {
          "indexed": true,
          "internalType": "address",
          "name": "recipient",
          "type": "address"
        },
        {
          "indexed": false,
          "internalType": "uint256",
          "name": "amount",
          "type": "uint256"
        }
      ],
      "name": "ClaimAndVest",
      "type": "event"
    },
    {
      "anonymous": false,
      "inputs": [
        {
          "indexed": false,
          "internalType": "bytes32",
          "name": "merkleRoot",
          "type": "bytes32"
        }
      ],
      "name": "MerkleRootSet",
      "type": "event"
    },
    {
      "anonymous": false,
      "inputs": [
        {
          "indexed": true,
          "internalType": "address",
          "name": "previousOwner",
          "type": "address"
        },
        {
          "indexed": true,
          "internalType": "address",
          "name": "newOwner",
          "type": "address"
        }
      ],
      "name": "OwnershipTransferred",
      "type": "event"
    },
    {
      "inputs": [
        {
          "internalType": "address",
          "name": "recipient",
          "type": "address"
        },
        {
          "internalType": "uint256",
          "name": "amount",
          "type": "uint256"
        },
        {
          "internalType": "bytes32[]",
          "name": "merkleProof",
          "type": "bytes32[]"
        }
      ],
      "name": "claim",
      "outputs": [],
      "stateMutability": "nonpayable",
      "type": "function"
    },
    {
      "inputs": [
        {
          "internalType": "address",
          "name": "",
          "type": "address"
        }
      ],
      "name": "hasClaimed",
      "outputs": [
        {
          "internalType": "bool",
          "name": "",
          "type": "bool"
        }
      ],
      "stateMutability": "view",
      "type": "function"
    },
    {
      "inputs": [],
      "name": "merkleRoot",
      "outputs": [
        {
          "internalType": "bytes32",
          "name": "",
          "type": "bytes32"
        }
      ],
      "stateMutability": "view",
      "type": "function"
    },
    {
      "inputs": [],
      "name": "owner",
      "outputs": [
        {
          "internalType": "address",
          "name": "",
          "type": "address"
        }
      ],
      "stateMutability": "view",
      "type": "function"
    },
    {
      "inputs": [],
      "name": "renounceOwnership",
      "outputs": [],
      "stateMutability": "nonpayable",
      "type": "function"
    },
    {
      "inputs": [],
      "name": "seam",
      "outputs": [
        {
          "internalType": "contract IERC20",
          "name": "",
          "type": "address"
        }
      ],
      "stateMutability": "view",
      "type": "function"
    },
    {
      "inputs": [
        {
          "internalType": "bytes32",
          "name": "_merkleRoot",
          "type": "bytes32"
        }
      ],
      "name": "setMerkleRoot",
      "outputs": [],
      "stateMutability": "nonpayable",
      "type": "function"
    },
    {
      "inputs": [
        {
          "internalType": "address",
          "name": "newOwner",
          "type": "address"
        }
      ],
      "name": "transferOwnership",
      "outputs": [],
      "stateMutability": "nonpayable",
      "type": "function"
    }
  ],
  "bytecode": {
    "object": "0x60a0346100e557601f6107d438819003918201601f19168301916001600160401b038311848410176100ea578084926060946040528339810103126100e55780516001600160a01b03919082811681036100e557604060208301519201518381168091036100e55780156100cc57600080546001600160a01b03198116831782556040519516907f8be0079c531659141344cd1fd0a4f28419497f9722a3daafe3b4186f6b6457e09080a36080526001556106d39081610101823960805181818161040f01526105a70152f35b604051631e4fbdf760e01b815260006004820152602490fd5b600080fd5b634e487b7160e01b600052604160045260246000fdfe608080604052600436101561001357600080fd5b60003560e01c90816321e4298514610594575080632eb4a7ab146105765780633d13f87414610217578063715018a6146101be57806373b2e80e1461017f5780637cb64759146101335780638da5cb5b1461010a5763f2fde38b1461007757600080fd5b34610105576020366003190112610105576100906105d6565b6100986105ec565b6001600160a01b039081169081156100ec57600054826bffffffffffffffffffffffff60a01b821617600055167f8be0079c531659141344cd1fd0a4f28419497f9722a3daafe3b4186f6b6457e0600080a3005b604051631e4fbdf760e01b815260006004820152602490fd5b600080fd5b34610105576000366003190112610105576000546040516001600160a01b039091168152602090f35b34610105576020366003190112610105577f42cbc405e4dbf1b691e85b9a34b08ecfcf7a9ad9078bf4d645ccfa1fac11c10b60206004356101726105ec565b80600155604051908152a1005b34610105576020366003190112610105576001600160a01b036101a06105d6565b166000526002602052602060ff604060002054166040519015158152f35b34610105576000366003190112610105576101d76105ec565b600080546001600160a01b0319811682556001600160a01b03167f8be0079c531659141344cd1fd0a4f28419497f9722a3daafe3b4186f6b6457e08280a3005b34610105576060366003190112610105576102306105d6565b67ffffffffffffffff60443511610105573660236044350112156101055767ffffffffffffffff6044356004013511610105573660246044356004013560051b604435010111610105576001600160a01b03811660009081526002602052604090205460ff1661055457600154906040516bffffffffffffffffffffffff198260601b16602082015260243560348201526034815280606081011067ffffffffffffffff60608301111761051057606081016040528051602082012061030560206044356004013560051b0160608401610618565b60443560048101356060840152602401608083015b60246044356004013560051b60443501018210610544575050916000925b606083015184101561039f5760808460051b840101519081811060001461038e5760005260205260406000205b9260001981146103785760010192610338565b634e487b7160e01b600052601160045260246000fd5b906000526020526040600020610365565b84036105325760018060a01b03811660005260026020526040600020600160ff198254161790556040516020810163a9059cbb60e01b815260018060a01b03831660248301526024356044830152604482526080820182811067ffffffffffffffff8211176105105760405290517f00000000000000000000000000000000000000000000000000000000000000006001600160a01b031691600091829182855af13d15610526573d67ffffffffffffffff81116105105761048491604051916104736020601f19601f8401160184610618565b82523d6000602084013e5b8361063a565b80519081151591826104ec575b50506104d4575060405160243581526001600160a01b03909116907f47cee97cb7acd717b3c0aa1435d004cd5b3c8c57d70dbceb4e4458bbd60e39d490602090a2005b60249060405190635274afe760e01b82526004820152fd5b81925090602091810103126101055760200151801590811503610105578380610491565b634e487b7160e01b600052604160045260246000fd5b6104849060609061047e565b6040516309bde33960e01b8152600490fd5b813581526020918201910161031a565b604051632058b6db60e01b81526001600160a01b039091166004820152602490fd5b34610105576000366003190112610105576020600154604051908152f35b34610105576000366003190112610105577f00000000000000000000000000000000000000000000000000000000000000006001600160a01b03168152602090f35b600435906001600160a01b038216820361010557565b6000546001600160a01b0316330361060057565b60405163118cdaa760e01b8152336004820152602490fd5b90601f8019910116810190811067ffffffffffffffff82111761051057604052565b90610661575080511561064f57805190602001fd5b604051630a12f52160e11b8152600490fd5b81511580610694575b610672575090565b604051639996b31560e01b81526001600160a01b039091166004820152602490fd5b50803b1561066a56fea2646970667358221220536e5be04f38a57a60d0ff1747d983534a0366a6f8928bad1a7b27da7a49ea3164736f6c63430008140033",
    "linkReferences": {}
  },
  "methodIdentifiers": {
    "claim(address,uint256,bytes32[])": "3d13f874",
    "hasClaimed(address)": "73b2e80e",
    "merkleRoot()": "2eb4a7ab",
    "owner()": "8da5cb5b",
    "renounceOwnership()": "715018a6",
    "seam()": "21e42985",
    "setMerkleRoot(bytes32)": "7cb64759",
    "transferOwnership(address)": "f2fde38b"
  },
  "id": 8
}