{
  "address": "0x4d235d6bb6E8f93449541dfdDb1F2a6408A379D4",
  "abi": [
    {
      "inputs": [
        {
          "internalType": "contract IERC20",
          "name": "_seam",
          "type": "address"
        },
        {
          "internalType": "contract IEscrowSeam",
          "name": "_escrowSeam",
          "type": "address"
        },
        {
          "internalType": "uint256",
          "name": "_vestingPercentage",
          "type": "uint256"
        },
        {
          "internalType": "bytes32",
          "name": "_merkleRoot",
          "type": "bytes32"
        },
        {
          "internalType": "address",
          "name": "_owner",
          "type": "address"
        }
      ],
      "stateMutability": "nonpayable",
      "type": "constructor"
    },
    {
      "inputs": [
        {
          "internalType": "address",
          "name": "target",
          "type": "address"
        }
      ],
      "name": "AddressEmptyCode",
      "type": "error"
    },
    {
      "inputs": [
        {
          "internalType": "address",
          "name": "account",
          "type": "address"
        }
      ],
      "name": "AddressInsufficientBalance",
      "type": "error"
    },
    {
      "inputs": [
        {
          "internalType": "address",
          "name": "recipient",
          "type": "address"
        }
      ],
      "name": "AlreadyClaimed",
      "type": "error"
    },
    {
      "inputs": [],
      "name": "FailedInnerCall",
      "type": "error"
    },
    {
      "inputs": [],
      "name": "InvalidProof",
      "type": "error"
    },
    {
      "inputs": [],
      "name": "InvalidVestingPercentage",
      "type": "error"
    },
    {
      "inputs": [],
      "name": "MathOverflowedMulDiv",
      "type": "error"
    },
    {
      "inputs": [
        {
          "internalType": "address",
          "name": "owner",
          "type": "address"
        }
      ],
      "name": "OwnableInvalidOwner",
      "type": "error"
    },
    {
      "inputs": [
        {
          "internalType": "address",
          "name": "account",
          "type": "address"
        }
      ],
      "name": "OwnableUnauthorizedAccount",
      "type": "error"
    },
    {
      "inputs": [
        {
          "internalType": "address",
          "name": "token",
          "type": "address"
        }
      ],
      "name": "SafeERC20FailedOperation",
      "type": "error"
    },
    {
      "anonymous": false,
      "inputs": [
        {
          "indexed": true,
          "internalType": "address",
          "name": "recipient",
          "type": "address"
        },
        {
          "indexed": false,
          "internalType": "uint256",
          "name": "seamAmount",
          "type": "uint256"
        },
        {
          "indexed": false,
          "internalType": "uint256",
          "name": "esSeamAmount",
          "type": "uint256"
        }
      ],
      "name": "Claim",
      "type": "event"
    },
    {
      "anonymous": false,
      "inputs": [
        {
          "indexed": false,
          "internalType": "bytes32",
          "name": "merkleRoot",
          "type": "bytes32"
        }
      ],
      "name": "MerkleRootSet",
      "type": "event"
    },
    {
      "anonymous": false,
      "inputs": [
        {
          "indexed": true,
          "internalType": "address",
          "name": "previousOwner",
          "type": "address"
        },
        {
          "indexed": true,
          "internalType": "address",
          "name": "newOwner",
          "type": "address"
        }
      ],
      "name": "OwnershipTransferred",
      "type": "event"
    },
    {
      "anonymous": false,
      "inputs": [
        {
          "indexed": false,
          "internalType": "uint256",
          "name": "vestingPercentage",
          "type": "uint256"
        }
      ],
      "name": "VestingPercentageSet",
      "type": "event"
    },
    {
      "anonymous": false,
      "inputs": [
        {
          "indexed": true,
          "internalType": "address",
          "name": "token",
          "type": "address"
        },
        {
          "indexed": true,
          "internalType": "address",
          "name": "recipient",
          "type": "address"
        },
        {
          "indexed": false,
          "internalType": "uint256",
          "name": "amount",
          "type": "uint256"
        }
      ],
      "name": "Withdraw",
      "type": "event"
    },
    {
      "inputs": [],
      "name": "MAX_VESTING_PERCENTAGE",
      "outputs": [
        {
          "internalType": "uint256",
          "name": "",
          "type": "uint256"
        }
      ],
      "stateMutability": "view",
      "type": "function"
    },
    {
      "inputs": [
        {
          "internalType": "address",
          "name": "recipient",
          "type": "address"
        },
        {
          "internalType": "uint256",
          "name": "amount",
          "type": "uint256"
        },
        {
          "internalType": "bytes32[]",
          "name": "merkleProof",
          "type": "bytes32[]"
        }
      ],
      "name": "claim",
      "outputs": [],
      "stateMutability": "nonpayable",
      "type": "function"
    },
    {
      "inputs": [],
      "name": "escrowSeam",
      "outputs": [
        {
          "internalType": "contract IEscrowSeam",
          "name": "",
          "type": "address"
        }
      ],
      "stateMutability": "view",
      "type": "function"
    },
    {
      "inputs": [
        {
          "internalType": "address",
          "name": "",
          "type": "address"
        }
      ],
      "name": "hasClaimed",
      "outputs": [
        {
          "internalType": "bool",
          "name": "",
          "type": "bool"
        }
      ],
      "stateMutability": "view",
      "type": "function"
    },
    {
      "inputs": [],
      "name": "merkleRoot",
      "outputs": [
        {
          "internalType": "bytes32",
          "name": "",
          "type": "bytes32"
        }
      ],
      "stateMutability": "view",
      "type": "function"
    },
    {
      "inputs": [],
      "name": "owner",
      "outputs": [
        {
          "internalType": "address",
          "name": "",
          "type": "address"
        }
      ],
      "stateMutability": "view",
      "type": "function"
    },
    {
      "inputs": [],
      "name": "renounceOwnership",
      "outputs": [],
      "stateMutability": "nonpayable",
      "type": "function"
    },
    {
      "inputs": [],
      "name": "seam",
      "outputs": [
        {
          "internalType": "contract IERC20",
          "name": "",
          "type": "address"
        }
      ],
      "stateMutability": "view",
      "type": "function"
    },
    {
      "inputs": [
        {
          "internalType": "bytes32",
          "name": "_merkleRoot",
          "type": "bytes32"
        }
      ],
      "name": "setMerkleRoot",
      "outputs": [],
      "stateMutability": "nonpayable",
      "type": "function"
    },
    {
      "inputs": [
        {
          "internalType": "uint256",
          "name": "_vestingPercentage",
          "type": "uint256"
        }
      ],
      "name": "setVestingPercentage",
      "outputs": [],
      "stateMutability": "nonpayable",
      "type": "function"
    },
    {
      "inputs": [
        {
          "internalType": "address",
          "name": "newOwner",
          "type": "address"
        }
      ],
      "name": "transferOwnership",
      "outputs": [],
      "stateMutability": "nonpayable",
      "type": "function"
    },
    {
      "inputs": [],
      "name": "vestingPercentage",
      "outputs": [
        {
          "internalType": "uint256",
          "name": "",
          "type": "uint256"
        }
      ],
      "stateMutability": "view",
      "type": "function"
    },
    {
      "inputs": [
        {
          "internalType": "contract IERC20",
          "name": "token",
          "type": "address"
        },
        {
          "internalType": "address",
          "name": "recipient",
          "type": "address"
        },
        {
          "internalType": "uint256",
          "name": "amount",
          "type": "uint256"
        }
      ],
      "name": "withdraw",
      "outputs": [],
      "stateMutability": "nonpayable",
      "type": "function"
    }
  ],
  "bytecode": {
    "object": "0x60a060405234801561001057600080fd5b50604051610d5a380380610d5a83398101604081905261002f91610129565b806001600160a01b03811661005e57604051631e4fbdf760e01b81526000600482015260240160405180910390fd5b610067816100c1565b5061271083111561008b576040516329a8bc8760e11b815260040160405180910390fd5b506001600160a01b03938416608052600180546001600160a01b031916939094169290921790925560029190915560035561018b565b600080546001600160a01b038381166001600160a01b0319831681178455604051919092169283917f8be0079c531659141344cd1fd0a4f28419497f9722a3daafe3b4186f6b6457e09190a35050565b6001600160a01b038116811461012657600080fd5b50565b600080600080600060a0868803121561014157600080fd5b855161014c81610111565b602087015190955061015d81610111565b809450506040860151925060608601519150608086015161017d81610111565b809150509295509295909350565b608051610ba76101b36000396000818160e50152818161030601526103f50152610ba76000f3fe608060405234801561001057600080fd5b50600436106100bf5760003560e01c80637cb647591161007c5780637cb647591461016d5780638da5cb5b14610180578063aed0675214610191578063ba634921146101a4578063d9caed12146101b7578063e225c95d146101ca578063f2fde38b146101d357600080fd5b8063106f3bbb146100c457806321e42985146100e05780632eb4a7ab146101145780633d13f8741461011d578063715018a61461013257806373b2e80e1461013a575b600080fd5b6100cd60025481565b6040519081526020015b60405180910390f35b6101077f000000000000000000000000000000000000000000000000000000000000000081565b6040516100d7919061096d565b6100cd60035481565b61013061012b366004610996565b6101e6565b005b610130610489565b61015d610148366004610a22565b60046020526000908152604090205460ff1681565b60405190151581526020016100d7565b61013061017b366004610a3f565b61049d565b6000546001600160a01b0316610107565b600154610107906001600160a01b031681565b6101306101b2366004610a3f565b6104e1565b6101306101c5366004610a58565b610541565b6100cd61271081565b6101306101e1366004610a22565b6105a6565b6001600160a01b03841660009081526004602052604090205460ff161561022b5783604051632058b6db60e01b8152600401610222919061096d565b60405180910390fd5b6102a8828280806020026020016040519081016040528093929190818152602001838360200280828437600092019190915250506003546040516bffffffffffffffffffffffff1960608b901b166020820152603481018990529092506054019050604051602081830303815290604052805190602001206105e4565b6102c5576040516309bde33960e01b815260040160405180910390fd5b60006102d6846002546127106105fc565b905060006102e48286610aaf565b905081156103ea5760015460405163095ea7b360e01b81526001600160a01b037f000000000000000000000000000000000000000000000000000000000000000081169263095ea7b3926103419291909116908690600401610ac2565b6020604051808303816000875af1158015610360573d6000803e3d6000fd5b505050506040513d601f19601f820116820180604052508101906103849190610adb565b506001546040516311f9fbc960e21b81526001600160a01b03909116906347e7ef24906103b79089908690600401610ac2565b600060405180830381600087803b1580156103d157600080fd5b505af11580156103e5573d6000803e3d6000fd5b505050505b801561041b5761041b7f000000000000000000000000000000000000000000000000000000000000000087836106c0565b6001600160a01b03861660008181526004602052604090819020805460ff19166001179055517f34fcbac0073d7c3d388e51312faf357774904998eeb8fca628b9e6f65ee1cbf7906104799084908690918252602082015260400190565b60405180910390a2505050505050565b61049161071d565b61049b600061074a565b565b6104a561071d565b60038190556040518181527f42cbc405e4dbf1b691e85b9a34b08ecfcf7a9ad9078bf4d645ccfa1fac11c10b906020015b60405180910390a150565b6104e961071d565b61271081111561050c576040516329a8bc8760e11b815260040160405180910390fd5b60028190556040518181527ffcd7dbb612accea2cf2cb3fb63c17f90a49da90158ebfd4d0adfeb6e8c0b483b906020016104d6565b61054961071d565b6105548383836106c0565b816001600160a01b0316836001600160a01b03167f9b1bfa7fa9ee420a16e124f794c35ac9f90472acc99140eb2f6447c714cad8eb8360405161059991815260200190565b60405180910390a3505050565b6105ae61071d565b6001600160a01b0381166105d8576000604051631e4fbdf760e01b8152600401610222919061096d565b6105e18161074a565b50565b6000826105f1858461079a565b1490505b9392505050565b60008383028160001985870982811083820303915050806000036106335783828161062957610629610afd565b04925050506105f5565b8084116106535760405163227bc15360e01b815260040160405180910390fd5b6000848688096000868103871696879004966002600389028118808a02820302808a02820302808a02820302808a02820302808a02820302808a02909103029181900381900460010186841190950394909402919094039290920491909117919091029150509392505050565b61071883846001600160a01b031663a9059cbb85856040516024016106e6929190610ac2565b604051602081830303815290604052915060e01b6020820180516001600160e01b0383818316178352505050506107e9565b505050565b6000546001600160a01b0316331461049b573360405163118cdaa760e01b8152600401610222919061096d565b600080546001600160a01b038381166001600160a01b0319831681178455604051919092169283917f8be0079c531659141344cd1fd0a4f28419497f9722a3daafe3b4186f6b6457e09190a35050565b600081815b84518110156107df576107cb828683815181106107be576107be610b13565b6020026020010151610843565b9150806107d781610b29565b91505061079f565b5090505b92915050565b60006107fe6001600160a01b0384168361086f565b905080516000141580156108235750808060200190518101906108219190610adb565b155b156107185782604051635274afe760e01b8152600401610222919061096d565b600081831061085f5760008281526020849052604090206105f5565b5060009182526020526040902090565b60606105f58383600084600080856001600160a01b031684866040516108959190610b42565b60006040518083038185875af1925050503d80600081146108d2576040519150601f19603f3d011682016040523d82523d6000602084013e6108d7565b606091505b50915091506108e78683836108f1565b9695505050505050565b6060826109065761090182610944565b6105f5565b815115801561091d57506001600160a01b0384163b155b1561093d5783604051639996b31560e01b8152600401610222919061096d565b50806105f5565b8051156109545780518082602001fd5b604051630a12f52160e11b815260040160405180910390fd5b6001600160a01b0391909116815260200190565b6001600160a01b03811681146105e157600080fd5b600080600080606085870312156109ac57600080fd5b84356109b781610981565b935060208501359250604085013567ffffffffffffffff808211156109db57600080fd5b818701915087601f8301126109ef57600080fd5b8135818111156109fe57600080fd5b8860208260051b8501011115610a1357600080fd5b95989497505060200194505050565b600060208284031215610a3457600080fd5b81356105f581610981565b600060208284031215610a5157600080fd5b5035919050565b600080600060608486031215610a6d57600080fd5b8335610a7881610981565b92506020840135610a8881610981565b929592945050506040919091013590565b634e487b7160e01b600052601160045260246000fd5b818103818111156107e3576107e3610a99565b6001600160a01b03929092168252602082015260400190565b600060208284031215610aed57600080fd5b815180151581146105f557600080fd5b634e487b7160e01b600052601260045260246000fd5b634e487b7160e01b600052603260045260246000fd5b600060018201610b3b57610b3b610a99565b5060010190565b6000825160005b81811015610b635760208186018101518583015201610b49565b50600092019182525091905056fea2646970667358221220368a65993856192172b9bd31e753bc94d627fae43f2c4d99f34f85f8da9ce57264736f6c63430008140033",
    "linkReferences": {}
  },
  "methodIdentifiers": {
    "MAX_VESTING_PERCENTAGE()": "e225c95d",
    "claim(address,uint256,bytes32[])": "3d13f874",
    "escrowSeam()": "aed06752",
    "hasClaimed(address)": "73b2e80e",
    "merkleRoot()": "2eb4a7ab",
    "owner()": "8da5cb5b",
    "renounceOwnership()": "715018a6",
    "seam()": "21e42985",
    "setMerkleRoot(bytes32)": "7cb64759",
    "setVestingPercentage(uint256)": "ba634921",
    "transferOwnership(address)": "f2fde38b",
    "vestingPercentage()": "106f3bbb",
    "withdraw(address,address,uint256)": "d9caed12"
  },
  "id": 101
}